S3150000000038300510B9000000CD000000CF00000018
S3150000001000000000000000000000000000000000DA
S31500000020000000000000000000000000D1000000F9
S315000000300000000000000000D30000007301000073
S31500000040D5000000D5000000D5000000D500000056
S31500000050D5000000D5000000D5000000D500000046
S31500000060E9000000D7000000D5000000D500000020
S31500000070D5000000D5000000D5000000D500000026
S31500000080D5000000D5000000D5000000D500000016
S31500000090D5000000D5000000D5000000D500000006
S315000000A0D5000000D5000000D5000000D5000000F6
S315000000B0D5000000D50000000348854600F054FB3B
S315000000C0004800474D06000038300510FEE7FEE701
S315000000D0FEE7FEE7FEE710B50120C003C06A800513
S315000000E001D500F029F810BD10B50120C003C06A83
S315000000F0800601D500F020F810BD0000C206D20E21
S31500000100012191404009134A80008018FF300130D8
S3150000011001607047C206D20E0121914040090D4A86
S3150000012080008018FF308130016070470A480169FD
S31500000130042211430161704708B500200090012098
S31500000140C10300E00860009A521C00920A2AFAD104
S31500000150F8E7000000E000E000ED00E0784900204C
S31500000160486188610A6977494A61886107200861A0
S31500000170704770B5724D00262868401C2860000E36
S3150000018000281AD02E60686906E0C1680A0E0902C6
S31500000190090A5118C160C0690028F6D10DE0E0686F
S315000001A0296888420CD8E069686186612269002165
S315000001B060699047204600F0F7FA6C69002CEED192
S315000001C061480020C04670BD5E490869C2035C48AC
S315000001D001D50122C260C268594889690069002AAE
S315000001E002D0411A08187047401A704754480069EF
S315000001F0704770B5FFF7E8FF514E0546F0680028D6
S315000002001CD00023F3603269B069AD1A07E0C168FB
S315000002108A4202D8891AC16000E0C360C06900281A
S31500000220F5D10BE0E068A8420BD82269002160698D
S315000002309047E069B061204600F0B6FAB469002C38
S31500000240F0D170BD70B50646FFF7BEFF3C4D0446C3
S315000002500A21286900F04EFAB16848432418202084
S3150000026000F0CCFA00281BD0B168816031690161C9
S315000002707169416171680023C460C3614160A96806
S315000002800160491CA960A96900290CD00022CE682A
S31500000290B4420AD2C161002A05D0D061002070BDE7
S315000002A00020C04370BDA861F8E70A46C969002965
S315000002B0EDD1D061C361F1E770B5064680680A21C9
S315000002C000F018FA1E4D29684418202000F096FA0E
S315000002D0002817D0B1688160316901617169416197
S315000002E07168C460416069680160491C6960696938
S315000002F00026002909D0CA68002394421AD2C16197
S3150000030068611AE00020C04370BD8661C661F7E7E8
S31500000310CA69002A08D0D3689C4209D8C261CA6952
S315000003209061C861816108E0C661C861836104E0CB
S315000003300B461146CA689442EAD2002070BD0000FE
S315000003400010051000E000E02C10051008B508218B
S31500000350002300911A46591E00F033F808BD00B577
S31500000360030000F013FA091E06080B0D10121517EC
S315000003701E00364810E0354820300DE034480BE0CA
S315000003803348203008E0334806E03248203003E0A6
S31500000390314801E0304820304068C0430860002002
S315000003A000BD0320C04300BD38B504460220FFF758
S315000003B0CDFF69460220FFF7D2FF0099A142F8D38C
S315000003C038BDF0B504461E460320C043230000F0A6
S315000003D0DDF9093706080B0D1012151737001B4CEF
S315000003E010E01A4C20340DE0194C0BE0184C203468
S315000003F008E0184C06E0174C203403E0164C01E0E8
S31500000400154C2034A56880239D43A5600127E7602D
S315000004100025012A00D14025002E00D03D43059A33
S31500000420002A0ED0042A0FD0082A09D10820054335
S31500000430022005432160A560A0681843A060002043
S31500000440F0BD0C208543F3E70420F0E700202110DF
S3150000045000302110006021100070211070B5784C1A
S315000004600146503103C4FF314531216008216160E6
S3150000047002460021FF3281321161516191610162B0
S315000004800168704D704E083CA94208D14168B142DE
S3150000049005D1916FA94202D1D16FB1420AD0012193
S315000004A0490200F056F9206805604660FF30813049
S315000004B08567C66770BD62490246903205C1FF3046
S315000004C09930086010204860704710B55C48006895
S315000004D001685C4B99420FD141685B4A91420BD14E
S315000004E00146FF3181318C6F9C4205D1C96F914223
S315000004F002D1C168491CC16010BD5148006801693C
S31500000500491C016170474E4800684169491C4161B8
S3150000051070474B4800688169491C816170474848AB
S315000005200068FF308130816901627047444909687B
S31500000530FF3181310862704741480068FF308130E1
S31500000540016A8161704710B53D4801680120083194
S31500000550FFF705FF10BD70B5394D0646FF202C6824
S315000005609D300059052100F0C5F888000019466243
S315000005702868FF308130C169491CC16170BD10B562
S315000005802F4CA1680B68E2680968521E934204D991
S31500000590090401432068016210BDCA0061688850E1
S315000005A0A0680068C00041180120091DFFF7D7FEAA
S315000005B0A0680168491C016010BD30B5204C226856
S315000005C01346FF3281321569082D04D311690904D7
S315000005D00143196230BD1269D200D218FF320132CE
S315000005E01065FF22206891321258D2001018FF3091
S315000005F0013041652068FF3081300169491C016185
S3150000060030BD10B50E4C2268D369090480B21B07B1
S315000006100143980E8018FF30013001612068C169DE
S31500000620491CC16110BD06490968FF318131486224
S31500000630704703480068FF308130406A7047000009
S315000006401C10051043415254474F4C4508B51E48EF
S315000006501E4C0068002803D0FFF737FF00F004F9AE
S315000006601B48FFF7FBFEFFF730FF2068FFF773FF1D
S315000006700120FFF76BFE6520FFF781FF154A16493B
S31500000680164800F04DF80122D2021549154800F02F
S3150000069047F8BFF35E8FBFF35E8FBFF36E8F012007
S315000006A0FFF7C1FF7520FFF76AFF0F4800680F4C80
S315000006B069460120FFF753FE0098A042F8D30C4983
S315000006C00020086000F0D0F804000015140F231075
S315000006D0007E021068580000200A00440000021044
S315000006E00078004400760210C06F231030750000B9
S315000006F00080021030B50B4601460020202201245E
S3150000070009E00D46D5409D4205D31D469540491B3F
S315000007102546954040191546521E002DF1DC30BD88
S3150000072003460B439B0703D009E008C9121F08C004
S31500000730042AFAD203E00B780370401C491C521EAF
S31500000740F9D27047D2B201E00270401C491EFBD2BA
S3150000075070470022F6E710B513460A4604461946C6
S31500000760FFF7F0FF204610BD064C0125064E05E0BA
S31500000770E36807CC2B430C3C98471034B442F7D3BC
S31500000780FFF79EFC7C0800007C08000030B474462D
S31500000790641E2578641CAB4200D21D46635D5B0077
S315000007A0E31830BC1847000010B5002823D0124BC0
S315000007B00022001F196803E0814203D80A464968EF
S315000007C00029F9D1002A0AD01368841A9C4204D160
S315000007D0006818181060104602E0506000E01860CB
S315000007E0002907D002680B1A934203D10B68D2186E
S315000007F002604968416010BD30100510F0B50B303D
S31500000800C108C900144F0026144A0FE003688B4242
S315000008100BD38B4205D95C1A4318456830C3083B95
S3150000082000E04368136002C004E0021D106800285F
S31500000830ECD13046002803D13868002801D00020CA
S31500000840F0BD064A06481060064A121AD208D200BF
S3150000085044C001203860D7E7341005103010051069
S315000008603C1005103830051000BF00BF00BF00BFA8
S3150000087000BF00BF00BF00BF00BF20BF00000000D8
S315000008800000000000000000000000000000000062
S315000008900000000000000000000000000000000052
S315000008A00000000000000000000000000000000042
S315000008B00000000000000000000000000000000032
S315000008C00000000000000000000000000000000022
S315000008D00000000000000000000000000000000012
S315000008E00000000000000000000000000000000002
S315000008F000000000000000000000000000000000F2
S3150000090000000000000000000000000000000000E1
S3150000091000000000000000000000000000000000D1
S3150000092000000000000000000000000000000000C1
S3150000093000000000000000000000000000000000B1
S3150000094000000000000000000000000000000000A1
S315000009500000000000000000000000000000000091
S315000009600000000000000000000000000000000081
S315000009700000000000000000000000000000000071
S315000009800000000000000000000000000000000061
S315000009900000000000000000000000000000000051
S315000009A00000000000000000000000000000000041
S315000009B00000000000000000000000000000000031
S315000009C00000000000000000000000000000000021
S315000009D00000000000000000000000000000000011
S315000009E00000000000000000000000000000000001
S315000009F000000000000000000000000000000000F1
S31500000A0000000000000000000000000000000000E0
S31500000A1000000000000000000000000000000000D0
S3151005100000000000000000000000000000000000C5
S31510051010A0EB8200000000000000000000000000A8
S3151005102000000000000000000000000000000000A5
S30D1005103000000000000000009D
S31544000A2068640000C1000000D5030000D70300003D
S31544000A30000000000000000000000000000000006C
S31544000A40000000000000000000000000D903000080
S31544000A500000000000000000DB030000EB00000083
S31544000A60DD030000DD030000DD030000DD030000BC
S31544000A70DD030000DD030000DD030000DD030000AC
S31544000A80DD030000DD030000DD030000DD0300009C
S31544000A90DD030000DD030000DD030000DD0300008C
S31544000AA0DD030000DD030000DD030000DD0300007C
S31544000AB0DD030000DD030000DD030000DD0300006C
S31544000AC0DD030000DD030000DD030000DD0300005C
S31544000AD0DD030000DD030000DD030000DD0300004C
S31544000AE00348854601F00CF900480047870D00008D
S31544000AF06864000078490020486188610A6977493A
S31544000B004A61886107200861704770B5724D0026B6
S31544000B102868401C2860000E00281AD02E60686998
S31544000B2006E0C1680A0E0902090A5118C160C06983
S31544000B300028F6D10DE0E068296888420CD8E069BF
S31544000B40686186612269002160699047204601F008
S31544000B50F7F86C69002CEED161480020C04670BDA0
S31544000B605E490869C2035C4801D50122C260C26875
S31544000B70594889690069002A02D0411A0818704701
S31544000B80401A704754480069704770B5FFF7E8FF4C
S31544000B90514E0546F06800281CD00023F3603269A4
S31544000BA0B069AD1A07E0C1688A4202D8891AC160A1
S31544000BB000E0C360C0690028F5D10BE0E068A842B4
S31544000BC00BD82269002160699047E069B0612046EC
S31544000BD001F0B6F8B469002CF0D170BD70B5064684
S31544000BE0FFF7BEFF3C4D04460A21286901F03AF856
S31544000BF0B16848432418202001F0CCF800281BD0C3
S31544000C00B16881603169016171694161716800232C
S31544000C10C460C3614160A9680160491CA960A969AF
S31544000C2000290CD00022CE68B4420AD2C161002AFF
S31544000C3005D0D061002070BD0020C04370BDA861BE
S31544000C40F8E70A46C9690029EDD1D061C361F1E7E5
S31544000C5070B5064680680A2101F004F81E4D2968DD
S31544000C604418202001F096F8002817D0B168816016
S31544000C7031690161716941617168C4604160696843
S31544000C800160491C696069690026002909D0CA685F
S31544000C90002394421AD2C16168611AE00020C0431D
S31544000CA070BD8661C661F7E7CA69002A08D0D36871
S31544000CB09C4209D8C261CA699061C861816108E0F1
S31544000CC0C661C861836104E00B461146CA68944212
S31544000CD0EAD2002070BD0000F013000000E000E0FE
S31544000CE06814000008B50821002300911A46591ECD
S31544000CF000F033F808BD00B5030001F013F8091EEF
S31544000D0006080B0D101215171E00364810E035481C
S31544000D1020300DE034480BE03348203008E03348B7
S31544000D2006E03248203003E0314801E030482030C4
S31544000D304068C0430860002000BD0320C04300BD96
S31544000D4038B504460220FFF7CDFF69460220FFF777
S31544000D50D2FF0099A142F8D338BDF0B504461E46E9
S31544000D600320C043230000F0DDFF093706080B0DBE
S31544000D701012151737001B4C10E01A4C20340DE0A6
S31544000D80194C0BE0184C203408E0184C06E0174C7C
S31544000D90203403E0164C01E0154C2034A56880232A
S31544000DA09D43A5600127E7600025012A00D140251F
S31544000DB0002E00D03D43059A002A0ED0042A0FD0B7
S31544000DC0082A09D108200543022005432160A5606D
S31544000DD0A0681843A0600020F0BD0C208543F3E7CB
S31544000DE00420F0E70020211000302110006021107B
S31544000DF000702110FEE7FEE7FEE7FEE7FEE700008F
S31544000E00044909680160704710B52022024900F080
S31544000E1053FF10BD74560000E01500008F4A131DA1
S31544000E201060196000207047F0B58C4F0D4684461B
S31544000E308B488C498C4E3C1DFFF7F0FF002818DB8D
S31544000E40874838600821C943864801E0761E11D098
S31544000E5022688242FAD162463A6022682A60824A0D
S31544000E6003E023682B60521E04D02B688342F8D0DB
S31544000E700020F0BD0846F0BD38B50D46002100916E
S31544000E800121C90601437648784C2430FFF7C6FF52
S31544000E90002818DBA0062918714D28352846FFF787
S31544000EA0BDFF00280FDB69462846FFF7BDFF002833
S31544000EB009DB0098641E002802DA002CF3D103E013
S31544000EC0002C01D0002038BD0820C04338BDFCB5F5
S31544000ED00D460021009101910121C9060143604854
S31544000EE0624C2430FFF79AFF002822DB5C4E6106F1
S31544000EF028363046FFF792FF00281ADB371D69462D
S31544000F003046FFF791FF002813DB01A93846FFF767
S31544000F108BFF00280DDB0098641E400002D4019824
S31544000F20002802DB002CEAD104E0002C02D0288001
S31544000F300020FCBD4E4828800820C043FCBDFEB5B9
S31544000F400C4681B2000C4B4FD21C0291019095087D
S31544000F50454E69463846FFF7BAFF002843DB6846E4
S31544000F600188032000028143FF2001300143684683
S31544000F7001803846FFF780FF002834DB3D48694648
S31544000F80401CFFF7A4FF00282DDB68460088C007F5
S31544000F9025D0002E25D069463846FFF798FF00280D
S31544000FA021DB684601883448014034480143684699
S31544000FB001803846FFF760FF002814DB2D4802996C
S31544000FC0801CFFF759FF00280DDB2A480199C01CF5
S31544000FD0FFF752FF274E361D002804DB14E0761E29
S31544000FE0CCD10820C043FEBD208881B23046FFF7ED
S31544000FF043FF0028F7DB2068010C3046FFF73CFF2F
S315440010000028F0DB241D6D1E002DEDD10020FEBD11
S31544001010F0B58C4601461A48002515E04A5D030A98
S315440010205A4000242346174F07E0D60702D05E00F5
S31544001030BE5B74405B1C9BB25208002AF5D1000289
S3154400104044406D1CA0B2ADB26545E7D3F0BD014640
S31544001050401E80B20029FAD17047000020012310B7
S315440010600C1100004E3C2B1A10270000A0860100EC
S31544001070ADDE000002D20000FCEFFFFF01100000CD
S31544001080FFFF0000E0130000FFB5C00489030843D6
S3154400109045490024454E0843716881B00860B068EC
S315440010A0026037460C3F38680068002809D07068EB
S315440010B00168432005F09FF8B0680168442005F0B4
S315440010C09AF831680120086038680068002804D01E
S315440010D030680168492005F08EF8354D306801685E
S315440010E0890703D42146641CA942F8DB0168090236
S315440010F00BD501684E2005F07EF8306801684F2014
S3154400110005F09DF84F2005B0F0BD39680968274EB3
S31544001110083E00290DD00168532005F06CF830686C
S315440011200168542005F067F870680168552005F099
S3154400113062F8AC4205D121465A2005F080F85A207F
S31544001140E1E770680168049801600020DBE770B548
S315440011500C46C504A003054316480021054313481D
S315440011604468256084682260C2681360036801226B
S315440011701A600F4A006803689B0703D40B46491C50
S315440011809342F8DB03681B0205D501686F2005F01E
S3154400119056F86F2070BD914204D1732005F04FF884
S315440011A0732070BD002070BD0002002C281400007E
S315440011B0A086010000020034F8B5FA4D0126FA4C27
S315440011C076021421284600F090FD2068F7498842AB
S315440011D052D16168F64881424ED1A06800284BD16D
S315440011E0E068002848D120690421F24A904204D19B
S315440011F0F1486169A26906C0072188002058EF4F6B
S31544001200EF4BF04AB84210D1491C88000019686077
S31544001210A868401CA860C91C880027589F4204D06F
S315440012202058904201D0B142F2DB880020589842BF
S315440012300DD1491C88000019E8602869401C2861C2
S31544001240C91C88002058904201D0B142F5DB761E75
S31544001250B14208DC88002358934204D100194268FD
S31544001260D348824208D0002028606860E860C020E5
S3154400127004F0E5FFC020F8BD0020F8BDF8B5CE4E19
S3154400128008363069006884B2B0680068C7B2706ACC
S315440012900068C507ED0F2946DF2004F0ACFFCA48B5
S315440012A0CA49204088422FD1052109071920400503
S315440012B0C1600321090301611023C54A00210720A7
S315440012C0FFF745FF010004D0312004F0B8FF312177
S315440012D01BE0FF23BF4A00210720FFF738FF010028
S315440012E004D0352004F0ABFF35210EE0C7239B0024
S315440012F0B94A00210B20FFF72AFF010004D03D2004
S3154400130004F09DFF3D2100E00021002902D0E120A8
S3154400131004F095FF3946204600F051FB010002D007
S31544001320E22004F08CFF002D08D1A3480078C007C2
S3154400133004D1306A01680122114301600020F8BDDE
S31544001340F8B500209C4C0090083460690068009011
S315440013504007FAD5FF20053004F02FFFEF22920014
S3154400136060690068114600908143F9D1FF200C3032
S3154400137004F023FF994D69462846FFF755FD0100C1
S3154400138002D0FF24143480E000993C2421432846AB
S315440013900091FFF743FD010002D0FF24163474E0A8
S315440013A08F4E69463046FFF73FFD010002D0FF24C9
S315440013B019346AE08B4800990140112001433046B4
S315440013C00091FFF72BFD010002D0FF241C345CE0A2
S315440013D0854E69463046FFF727FD010002D0FF24BB
S315440013E0223452E000990820014330460091FFF729
S315440013F015FD010002D0FF24243446E01126B6012F
S3154400140069463046FFF710FD010002D0FF24273419
S315440014103BE00098010909010B2001433046009145
S31544001420FFF7FCFC010002D0FF242A342DE04721BB
S31544001430802689016120770180010091FFF7EEFC47
S31544001440010002D0FF2432341FE000996120B143E9
S31544001450B94380010091FFF7E1FC010002D0FF246B
S31544001460353412E069462846FFF7DEFC010002D017
S31544001470FF243D3409E000992846A1430091FFF733
S31544001480CDFC010006D0FF243F34204604F0D7FEAD
S315440014902046F8BD0020F8BDF8B500200090464827
S315440014A001680805040F082C02D8601E044203D0C4
S315440014B02146FF24793438E03F4808300069002C3F
S315440014C008D10268520C920703D002685203940F63
S315440014D000E0012409060D0F032D03D9FF242946F4
S315440014E0863422E0002D08D10168C90C890703D04F
S315440014F00068C002850F00E00325394E6946304630
S31544001500FFF792FC010002D0FF2490340DE00098CE
S315440015102101400A40022943014330460091FFF726
S315440015207DFC010006D0FF249334204604F087FE58
S315440015302046F8BD0020F8BDF0B59C462B4B91B033
S315440015401C6807466408169E179864001C600B04C2
S31544001550BC330093AF23090C9B04C918029203259C
S31544001560019101223346002101E05B08491C012B0D
S31544001570FBD10E239A434907090F1143F023421E18
S31544001580994313071B0F1C010C430721090201222F
S315440015908C43520214438C4351018C430C433146D1
S315440015A0002227E0EC7500000076000045494350D0
S315440015B0534752414C525443381400004C45525000
S315440015C054534F50444E4500F0FF000070B800009D
S315440015D00001000200030002001402026808000031
S315440015E0DC04000000F3FFFF041800000008261086
S315440015F04908521C0129FBD10721C9038C435107D1
S315440016008A0B22430F2189048A43990411430722F2
S31544001610920591430122D205114307225206914372
S315440016200A04FF32AB006C46BD32E250F94A090C5B
S3154400163089186D1CAA00A1503146414360464018A2
S31544001640401E6D1C00F00EFB00021121490420309F
S315440016500843A90060506D1CA900EF4860506D1CFA
S31544001660A900EE4860506D1C3420A90060507807EC
S31544001670400DA030010438020143E948E94A81603B
S3154400168069468918C16000214160E7490868000736
S31544001690000FFBD111B0F0BDFEB5064600206946E9
S315440016A0088169201C4601214002FFF7E5FB010041
S315440016B001D0DE4C70E00921DD48FFF7DDFB010077
S315440016C002D0DA4C641C67E0D94801210B30FFF79D
S315440016D0D3FB010002D0D54CA41C5DE0D54D28684F
S315440016E00168012211430160CE48102331180820B5
S315440016F001930090D04A23460020FFF71DFF0100C6
S3154400170002D0CA4C0E3447E0CC4C68682146026885
S31544001710D20602D4491E0029F9DC00290AD0C44E57
S31544001720012128363046FFF7A7FB010005D099244E
S31544001730A40031E0BD4C1C342EE0BD4F293702A92C
S315440017403846FFF7C4FB010002D04D24E40023E0F1
S3154400175068460089000602D4641E002CEFDC002C87
S3154400176008D000213046FFF787FB010006D0AF4C76
S31544001770343411E02146AD4C31340DE0286801681B
S31544001780490849000160AA4800210B30FFF774FB61
S31544001790010006D0A54C4234204604F050FD2046B4
S315440017A0FEBD0020FEBD90B0002005903F204002C3
S315440017B004F09FFC04F0BFFC9C48BE3004F0FDFCE2
S315440017C0032004F0D1FCFFF7F7FC010003D0C1204D
S315440017D0800004F034FD9748083801689348C630C1
S315440017E004F009FD04F043FD002807D0FFF746FD49
S315440017F0010003D08D48CA3004F021FD8B48CD301A
S3154400180004F0DBFC05A8FFF7FBFA07A8FFF7FCFA90
S31544001810099881B20598FFF7FBFB05460A98854C63
S31544001820A84203D0814E2946D63692E004F01FFDE5
S31544001830002814D0002004F014FD7C48E63004F05F
S31544001840BCFC04F08AFCCB20800004F0B6FCFFF715
S3154400185077FD05000ED0754E0146EE3679E0606997
S3154400186000684007C10FE8D01920400104F0E7FCA6
S31544001870734873E03320000104F09FFC00F062F9E2
S31544001880050003D0694E0146F23662E06748F430FB
S3154400189004F093FC1320A0210002FFF7EDFA0100A7
S315440018A002D0FF25C23512E04521C9016548FFF73C
S315440018B0E3FA010002D0FF25C53508E06148092155
S315440018C0401CFFF7D9FA010006D0FF25C635284645
S315440018D004F0B5FC284601E000F0DEF8050003D02C
S315440018E067260146F60034E05048F93004F065FCBA
S315440018F014220AA9684600F0DFF907A90EC905981B
S31544001900FFF7CAFE050003D0484E0146FC3620E0E8
S315440019104648FE3004F051FC00F049F9050002D077
S315440019200146494E15E0D120800004F046FCFFF7FD
S31544001930B3FD010005D0FF25D635284604F07FFCCB
S3154400194002E000F0D4F80546002D0AD03E4E294662
S31544001950761D304604F073FC28048019E16808605B
S3154400196006E0E16801200860D320800004F025FCED
S3154400197004F0E7FBE0680068012801D004F0E7FBC7
S315440019800025324E10E03146284600F081F96D1CA0
S31544001990002911D000BF00BF00BF00BF00BF00BF79
S315440019A000BF00BF00BF00BF606900688008C00771
S315440019B0E9D104F0DFFB46E704F0E3FBF4E770B556
S315440019C0234A04461040234B234A98420BD17E2394
S315440019D000215720FFF7BBFB01005BD04A2004F0EF
S315440019E02EFC4A2070BD1D4D1D4BA84207D01D4DEF
S315440019F0A84201D1012902D01B4DA84236D100216B
S31544001A005720FFF7A4FB010044D0522004F017FCF2
S31544001A10522070BD0000181804083C0238061818F5
S31544001A20004D231000000210004123104102000023
S31544001A3001D200004014000000407410102700003A
S31544001A4020030100B0D0000042030000A08601003C
S31544001A50F0FF000080B90000003C000280B800009E
S31544001A60FEFF0F0080B7000080B000007548844236
S31544001A7002D0401C84420DD101290BD1724A002167
S31544001A805720FFF764FB010004D0592004F0D7FB2C
S31544001A90592070BD002070BD70B56C4EB568746831
S31544001AA01FE0206801280AD0002814D0B068FF241B
S31544001AB0411B5734204604F0C2FB204670BD2089A2
S31544001AC081B26068FFF7D8F9002808D0B068FF24CF
S31544001AD0411B5234EEE7A1686068FFF79FF90C3466
S31544001AE06D1E002C01D0002DDBDC002070BD70B5CE
S31544001AF0564E3569F4681FE0206801280AD000284C
S31544001B0014D03069FF24411BAD34204604F097FBC2
S31544001B10204670BD208981B26068FFF7ADF9002880
S31544001B2008D03069FF24411BA734EEE7A1686068FA
S31544001B30FFF774F90C346D1E002C01D0002DDBDC4C
S31544001B40002070BD70B5424C2068016804252943C5
S31544001B50016000213F48FFF78FF9010001D03E4C58
S31544001B6016E03D48401C04F028FB3A4800210B3857
S31544001B70FFF782F9010002D0374CA41C08E0692023
S31544001B8000214002FFF778F9010006D05324E4000F
S31544001B90204604F054FB204670BD7D20C000FFF76C
S31544001BA056FA20680168A9430160002070BD38B523
S31544001BB0002069460880692003214002FFF75CF94A
S31544001BC0010002D0244C1C3436E022482349193003
S31544001BD0FFF752F9010002D05724E4002CE01D4DD2
S31544001BE0002124352846FFF747F9010002D01A4C54
S31544001BF0263421E017480B210B38FFF73DF9010045
S31544001C0002D0154C2C3417E0154C69462846FFF78C
S31544001C105EF9010002D0104C34340DE06846008869
S31544001C20002802D1641E002CEFDC002C01D00020D9
S31544001C3038BD21462D242401204604F000FB2046CD
S31544001C4038BD000090B9000000F00002EC750000B9
S31544001C50401400000CD200009502000001830000ED
S31544001C601027000030B50B460146002020220124EF
S31544001C7009E00D46D5409D4205D31D469540491B76
S31544001C802546954040191546521E002DF1DC30BDBF
S31544001C9070B500242546002801DA01244042002973
S31544001CA001DA01254942FFF7DDFFAC4200D040424C
S31544001CB0002C00D0494270BD03460B439B0703D01A
S31544001CC009E008C9121F08C0042AFAD203E00B78B7
S31544001CD00370401C491C521EF9D27047D2B201E02F
S31544001CE00270401C491EFBD270470022F6E710B52D
S31544001CF013460A4604461946FFF7F0FF204610BD30
S31544001D00064C0125064E05E0E36807CC2B430C3C04
S31544001D1098471034B442F7D3FEF7E6FEF0130000BA
S31544001D20F013000030B47446641E2578641CAB423C
S31544001D3000D21D46635D5B00E31830BC18470000C3
S31544001D4010B5002823D0124B0022001F196803E067
S31544001D50814203D80A4649680029F9D1002A0AD0A3
S31544001D601368841A9C4204D10068181810601046FF
S31544001D7002E0506000E01860002907D002680B1AA0
S31544001D80934203D10B68D21802604968416010BD82
S31544001D906C140000F0B50B30C108C900144F00267E
S31544001DA0144A0FE003688B420BD38B4205D95C1A65
S31544001DB04318456830C3083B00E04368136002C0DB
S31544001DC004E0021D10680028ECD13046002803D1F7
S31544001DD03868002801D00020F0BD064A0648106045
S31544001DE0064A121AD208D20044C001203860D7E706
S31544001DF0701400006C1400006C5800006864000005
S31544001E00211042208440088131126224C4488891BA
S31544001E100000000000000000000000000000000078
S31544001E20A0EB82000000000000000000000000005B
S31544001E30000000000000000000000000FC7F0000DD
S31544001E400C00210310002103000021030C00210390
S31544001E5010002103140021030000000000000000CC
S31544001E60083426100035261004602310040000159B
S31544001E70C06F2310140F2310300F2310380F231074
S31544001E80540F2310100F2310000000000000000020
S31544001E9000000000000000000000000000000000F8
S31544001EA000000000000000000000000000000000E8
S31544001EB000000000000000000000000000000000D8
S31544001EC000000000000000000000000000000000C8
S31544001ED000000000000000000000000000000000B8
S31544001EE000000000000000000000000000000000A8
S31544001EF00000000000000000000000000000000098
S31544001F000000000000000000000000000000000087
S31544001F100000000000000000000000000000000077
S31544001F200000000000000000000000000000000067
S31544001F300000000000000000000000000000000057
S31544001F400000000000000000000000000000000047
S31544001F500000000000000000000000000000000037
S31544001F600000000000000000000000000000000027
S31544001F700000000000000000000000000000000017
S31544001F800000000000000000000000000000000007
S31544001F9000000000000000000000000000000000F7
S31544001FA000000000000000000000000000000000E7
S31544001FB000000000000000000000000000000000D7
S31544001FC000000000000000000000000000000000C7
S31544001FD000000000000000000000000000000000B7
S31544001FE000000000000000000000000000000000A7
S31544001FF00000000000000000000000000000000097
S31544002000494543500B000200744000004A07000053
S31544002010443130325F304200000000000311222078
S31544002020F00B002043020000B9390000C739000014
S315440020300000000000000000000000000000000056
S31544002040000000000000000000000000D539000038
S31544002050000000000000000029020000E3390000EF
S31544002060F1390000FF3900003D3A00003D3A0000D6
S315440020700D3A0000133A0000193A00001F3A0000D6
S31544002080253A00002B3A0000313A0000373A000066
S315440020903D3A00003D3A00003D3A00003D3A00001A
S315440020A03D3A00003D3A00003D3A00003D3A00000A
S315440020B03D3A00003D3A00003D3A00003D3A0000FA
S315440020C03D3A00003D3A00003D3A00003D3A0000EA
S315440020D03D3A00003D3A00003D3A00003D3A0000DA
S315440020E000000000000000000000000000000000A6
S315440020F00000000000000000000000000000000096
S315440021000000000000000000000000000000000085
S315440021100000000000000000000000000000000075
S31544002120496E66360B02D100000300010426000105
S3154400213000010020000400200000000000050020EB
S31544002140080000008000000028040020000A002047
S3154400215000000000000000000000000048040020C9
S315440021600000000000000000000000000000000025
S315440021700000000000000000000000000000000015
S315440021800100000000000000000000000000000004
S3154400219000000000000000000000000000000000F5
S315440021A000F002F800F03EF80CA030C808382418B5
S315440021B02D18A246671EAB4654465D46AC4201D135
S315440021C000F030F87E460F3E0FCCB6460126334229
S315440021D000D0FB1AA246AB4633431847843E000060
S315440021E0A43E0000103A02D378C878C1FAD8520700
S315440021F001D330C830C101D504680C607047000073
S315440022000023002400250026103A01D378C1FBD8C8
S31544002210520700D330C100D50B6070471FB51FBDB0
S3154400222010B510BD03F09CFE1146FFF7F7FF00F012
S3154400223021F803F0B4FE03B4FFF7F2FF03BC00F049
S3154400224017F8FEE7FEE7FEE7FEE7FEE7FEE7FEE7F2
S31544002250FEE7FEE7FEE7FEE7FEE7FEE7FEE7FEE70C
S31544002260FEE710B5FFF79CFF10BD0A4603467047CC
S31544002270FEE77047FFF7FDFF03F040FC614E002781
S315440022803760052109077818306003F077FB03F0BF
S315440022900CFB03242407A08AB81EA08231685A483E
S315440022A008180782A08A2020C043A08231682020D3
S315440022B0132252028918088031685348403008185E
S315440022C0408C524DC007C00F01D0022004E0306854
S315440022D04F494018808E000B287002F0C1FB03F072
S315440022E03FFDA08AA7824B4A336890883546010B46
S315440022F009030007000D0143907B0143424A9A18A3
S315440023001184464F44493960032233685204934347
S31544002310336000265EE038689221095CC02251434E
S315440023204030818002F0F7FBA08A0120C043A0829E
S315440023302A680121344840301018018002F027FDF4
S3154400234002F077FDA08A0720C043A08229680420B2
S31544002350334A89188881A08A3248A0820120296894
S3154400236080032B4AC03A89180884A08A2E48A08242
S3154400237001212A6849032648803812185181A18AC6
S315440023802A49A18201212A68090312185181A18A86
S315440023902749A18201212A68C90212185181A18ABA
S315440023A02449A18201212A6889021018418138688A
S315440023B003228030C07C5204010217480818386052
S315440023C08030807C296880079143400B0143761C0A
S315440023D0F6B229600D48007886429CD303260E4CFB
S315440023E0760400F029F838688030C07C0002001971
S315440023F038608030807C29688007B143400B0143B4
S315440024002960EEE78400002040A4010080000020FB
S31544002410C0A1010000040020000500209000002017
S3154400242040A30100FFBF0000FFDF0000FFEF0000F4
S31544002430FFF70000FFFB0000FEB5FE4D00262868AE
S315440024408030807C002817D10F273F0303F038FAE9
S31544002450F94C000C2168090C401AB8420CDDF748C7
S31544002460FF218170F02141700670032003F0D2FBF6
S3154400247020683904401820602968F14C8031887AF4
S31544002480C87222680D2040031018808FC20A8A72CF
S315440024900106C90F03D18006800E01F0C5FF2868E6
S315440024A00090407C002809D0012831D002282DD044
S315440024B003282ED004282FD0052830D00098002198
S315440024C0403081740098226880308446007A400601
S315440024D0C017DC495118898F401C4907C917491C44
S315440024E0D94D084276D00022A88A8420C043A882C7
S315440024F0D0072168000ED54BC918001D88850020D9
S31544002500002110280ED21F231B1A0DE000F06EFB8B
S31544002510FEBD00F0E0FBFEBD01F006FDFEBD00F091
S31544002520D0FEFEBD0346103BAE8ADBB2002A07D07E
S315440025301F26F643AE822768C44EBE19F38506E0CD
S31544002540C34EAE8227681E02C04BFB189E85BD4E05
S3154400255000232768BF193F8CFF05FF0F01D0491C94
S31544002560C9B25B1CDBB20A2BF3D3002804D005297D
S315440025701DD81F2802D016E0052914D9A88A002A96
S3154400258008D01F20C043A88223681020AF49591899
S31544002590C8850CE0AE48A882012023680003AB49F5
S315440025A05918888503E0401CC0B22028A8D3521C81
S315440025B0D2B2022A98D3A88A0420C043A8822268A9
S315440025C00020A249511888856046007A4021084374
S315440025D06146087221689B480818008C9D4E800409
S315440025E0800F02286CD00098A030007800284BD089
S315440025F0236803215803800F00908E484904964A65
S315440026008B430260002723602DE0A88A0120C04343
S31544002610A882226800200D2149035118488403F0FA
S3154400262080F98E4803F059F98249002009688031BF
S31544002630C87702F0DBFC7F4800220068A0210A54D8
S315440026408030C07C03220102834852040818794929
S3154400265008608030807C216880079143400B0143A9
S315440026607F1CFFB221607E4800788742CDD3009814
S315440026707949020252186F490A60032252042168BA
S315440026804004914301432160216870480818C08A78
S3154400269001076848090F00684030C17401218174FC
S315440026A03079002800D03CE7A88A0F20C043A8828E
S315440026B023680F2265484030181842843171FEBDA4
S315440026C0307901280BD1A88A0F20C043A8822268FA
S315440026D007215E484030101841840020307160461E
S315440026E0C07A544E00286046807A02D0002805D02D
S315440026F008E0002806D002212F2001E002213020E4
S3154400270003F016FB316808468030827A002A3CD0B2
S31544002710012A42D00227062A52D0082ACFD1427C27
S31544002720530716D404231A431A404274827C403118
S31544002730897A12015118C07F09061030090CC0B2BB
S31544002740014301910023022200973321012003F023
S3154400275079FA306801468031CA7F002A56D0012A68
S3154400276066D0032A65D0042AA9D101214030817458
S31544002770216834480918C989C90775D021680918D8
S31544002780C9898907C90F70D01FE10022427401200C
S315440027904031887402F097FBFEBD002640318E74AA
S315440027A00221312003F0C4FA02F010F902F003FDCD
S315440027B0A88A2C48A8822168224808184680FEBD6B
S315440027C0427C930715D43A433A404274827C403162
S315440027D0897A12015118C07F09061030090CC0B21B
S315440027E0014301910023022200973221012003F084
S315440027F029FA30688030C07F002804D00228DED110
S3154400280002F09AFFFEBD02F037FEFEBDAA8A0222FE
S31544002810D243AA8223680D2252039B185F84AB8A53
S315440028200123DB43AB8224680023A21853841DE0B2
S3154400283027E0A5E090000020880000208C000020BE
S315440028408400002080A401000000003000A10100A3
S31544002850FFE000002004002000050020A0860100BF
S3154400286080000020FF7F00009FE0A1E00122CA779C
S31544002870897C4030807A090108180006000C212121
S31544002880B1E023685A4A9B18DB89DB071ED0CF7711
S31544002890A88A2020C043A882226820200D2149030B
S315440028A05118088403F058F8002801D103F039F888
S315440028B03068014602468032907C4031897A000174
S315440028C040180006010CD07F303049E02368484A5E
S315440028D09A18D2899207D20F20D0012240308274AE
S315440028E00420C877A88A4348A882910322684048AE
S315440028F01018418003F030F8002801D103F011F894
S315440029003068014602468032907C4031897A000123
S3154400291040180006010CD07F403021E003F01CF83B
S31544002920226833495118898F8907C917491C0842B7
S3154400293021D0316808468030C777AA8A2022D243FC
S31544002940AA82246820220D235B03E3181A84827C1E
S315440029504031897A120151180906C07F090C50305A
S31544002960C0B2014300970191002302223321012082
S3154400297003F068F9FEBD3168012040318874FEBD1C
S31544002980012240308274AA8A1B4AAA822468531CB4
S31544002990174AA21853800422CA77897C807A09018F
S315440029A008180006000C64211DE0A98A124901E0BA
S315440029B0A98A1049A982226800211018418002F090
S315440029C0A1FF316801208031C8773068014602464C
S315440029D08032907C4031897A000140180006D17FCC
S315440029E0000C7031C9B2084300970190BCE700005F
S315440029F080A40100FFBF0000FF7F0000002816D01E
S31544002A00012815D0002140004008491C400049B225
S31544002A100028FADAC00DE0221040CA17D20E521826
S31544002A2052095201891A1F22511A4018C0B27047DE
S31544002A30E0207047F0B503242407A18AFE49A18209
S31544002A40002801DD012100E00021FC4A8902FC4EF8
S31544002A50891832680D277F03D21911810123002179
S31544002A605B02454207E0A28AF64AA2823268D2193C
S31544002A701381491C49B2002801DB024600E02A467C
S31544002A808A42F0DCF0BDF0B5EF48532100680123DB
S31544002A90095C0D270324EB4A5B027F032407E84DB8
S31544002AA000290CD02621415EE84E084611300CD050
S31544002AB00F2917D0A08AA2822868C0190381A08A48
S31544002AC0A2822868C01903811BE03E20C043FFF759
S31544002AD0B1FF0120FFF7AEFFA08AFF20A0820120AC
S31544002AE080020BE03E20C043FFF7A4FF0120FFF71E
S31544002AF0A1FFA08AFF20A0820120C002296889196B
S31544002B008884D1480068C18C491CC184F0BD30B565
S31544002B1003200007818ACE4B8382C94900240D686D
S31544002B20CA4AAD182C84848A83820C685B1CA2181A
S31544002B301384828A8022D2438282096880200D22AD
S31544002B4052038918088430BDBD480068BF494018FF
S31544002B50808E800480164042704710B503210907D1
S31544002B608A8A8A138A82404280060D22C00D520206
S31544002B708318B34A1468B5482418E3828B8AB44B45
S31544002B808B821268591C1018C18210BDAE48006869
S31544002B908030807A062801D0002070470120704793
S31544002BA070B5A94800210468227FA37D9A4201D3C7
S31544002BB0D01A02E0BF20C01A8018C5B2E08C632840
S31544002BC001D10121C903BF2A01D3002000E0501CD2
S31544002BD0C0B2834202D10126B60331439A4202D19E
S31544002BE00122520311432943A18270BD70B5FFF7F8
S31544002BF0D7FF0546FFF7CAFF002863D0924C2168E9
S31544002C00087DBB285ED226228A5E632A5AD040318A
S31544002C10CE7C8B488D498F4B002E16D010321F2AFE
S31544002C2002681DD856182822B25E006892024018DF
S31544002C30408DC0B21043FFF7E1FE024620684421AE
S31544002C40095A007F08181A541CE0026856183022A4
S31544002C50B25E006892024018408E8005800D07E0FF
S31544002C6056182C22B25E006892024018C08DC0B23B
S31544002C701043FFF7C3FE014620684422125A007FE0
S31544002C801018195420680577FFF75EFF1F21C842C4
S31544002C901CDC20684422125A047F002112199954DC
S31544002CA0017FBF2901D3002100E0491C0177262179
S31544002CB0415E1F2907DAFFF7E6FE1F20FFF74DFFA7
S31544002CC0FFF725FF70BD6321C18470BDFFF73CFF4C
S31544002CD0401E40B2F2E7F0B5FFF762FF0746FFF742
S31544002CE055FF00286FD0584E3068017DBB296AD203
S31544002CF02621415E632966D04030C07C504C534DFA
S31544002D00544B00280BD0103120681F2912D8411982
S31544002D102820085E216880024919498D11E02068FF
S31544002D2041193020085E216880024919498E890577
S31544002D30890D07E041192C20085E21688002491953
S31544002D40C98DC9B20843FFF759FE0146306844228B
S31544002D50125A007F10181954306826210777415EAD
S31544002D601F2902DAFFF78FFE2BE04422125A002174
S31544002D70D2199954017FBF2901D3002100E0491C8F
S31544002D800177FFF7E1FE1E27FF43B84224DD306892
S31544002D904030C07C002817D00420FFF74BFE0320A8
S31544002DA00007818AFF218182012021684002491956
S31544002DB088843068C784FFF7C7FE401E40B2FFF7D9
S31544002DC0CCFEFFF7A4FEF0BD3E20C043FFF732FE23
S31544002DD00120FFF72FFEECE731686320C884F0BD7D
S31544002DE010B502F06DFD1849020C09680887CA86B9
S31544002DF088844A8410BD10B5114A1168164BC91807
S31544002E00898E00244904047048081168C918C98E7B
S31544002E10084310BD10B503200007818AFF21043101
S31544002E208182074A00211468084BE4182184848A65
S31544002E3081821468E41811E0808B000001200000B0
S31544002E4084000020FFFD00009000002040A0010007
S31544002E50FF7F00000001002080A101006184848A74
S31544002E6081821468E418A184848A81821068C01817
S31544002E70C18410BD70B50446FFF7CCFF0321090792
S31544002E80888AFE488882FE4AE3061568DB0E0D26CC
S31544002E907603AD196B858B8AFA4B8B8216680D14B3
S31544002EA0F94BF61835848D8AFF258D8201251668DF
S31544002EB0AD02F618B5848D8A0325ED438D821668D6
S31544002EC00325F318DD848B8A88821068EF494018FD
S31544002ED0C48570BDF0B51F20FFF7CCFF0320000763
S31544002EE0818A3021C9438182E54910230C680D2229
S31544002EF05203A4186384838AE54B838201230C68B6
S31544002F009B02E44D64196384838A2023DB438382D2
S31544002F100C682023A2181384828ADF4D85825E02C0
S31544002F200B68DA4A403A9B189E81838ADB4F878234
S31544002F300C687300A418A381848A85820C68A4183B
S31544002F40A684848A87820C68A2189384828A08227B
S31544002F50D243828209680820CB4A403289180880C5
S31544002F60F0BDF8B5CE4F26213868415E0C124DB2FD
S31544002F7029461F313F2904D21F2C02DC1F21CC4293
S31544002F8009DA0122E1B2D203891881828030447081
S31544002F9085700120F8BDFFF7D7FD01463868B84E65
S31544002FA04030417632680D2149035218928AC273E1
S31544002FB032685118898A091201742846FFF7CDFDF3
S31544002FC0FFF788FF38685321095C00290DD0032197
S31544002FD010230907FF22DC4209DA63004033C38425
S31544002FE08B8A8A82012252020AE0C4840FE00F2CA3
S31544002FF00BDD63003C3BC3848B8A8A820122D20266
S315440030003368A14959188A8401E06100C184C08C9F
S3154400301040B2FFF70FFD6846FFF7EDFEFFF7E0FE0F
S31544003020FFF775FD386801218182803044708570D0
S315440030300020F8BDF0B5924D29680D26760389190E
S31544003040898A032409120818400040B24110240713
S31544003050A08A8C480C30A08201202A684003921929
S3154400306010810A068A48A28AA08205D52A680020C9
S3154400307092191081494204E001202A68800292197B
S315440030801081A08A7F20C043A0822A680120921919
S31544003090108100200122834F520206E0A38AA782B0
S315440030A02B689B191A81401C40B28842F6DBF0BD5E
S315440030B0F0B5734D29680D2676038919898A032448
S315440030C00818400040B240102407A18A6D490C31CB
S315440030D0A18201212A6889039219118103060021DC
S315440030E0002B6B4AA38AA28204DA2A6892191181B8
S315440030F0404204E001222B6892029B191A81684AD5
S31544003100684F12684032937B01225202002B13D03F
S31544003110A18A7F21C943A1822B6801219B19198168
S31544003120002106E0A38AA7822B689B191A81491CB1
S3154400313049B28142F6DBF0BDA38A5B4BA3824006CB
S315440031400123400EDB02C0182B689B191881A08A04
S31544003150A782286880190281A08A53487F30A082BA
S31544003160286880190181F0BD0F304010704710B5B2
S31544003170032109078A8A8A138A82C0051122C00D4F
S31544003180520283183E4A14683F482418E3828B8AC5
S31544003190424B8B821268591C1018C18210BD10B55F
S315440031A0032109078A8A8A138A82C0050922C00D27
S315440031B092028318324A146833482418E3828B8A6D
S315440031C0364B8B821268591C1018C18210BD10B53B
S315440031D0334C2068C27D014653074031002B14DA34
S315440031E092070DD4812141560F314810FFF7D7FF7E
S315440031F02168822008560F304010FFF7B8FF0DE0D3
S315440032000F200856FFF754FF08E019200856FFF729
S31544003210A4FC216850200856FFF70CFF2068C07DA7
S3154400322000070CD503200007818A0821C9438182FF
S31544003230134908200968144A40328918088010BD89
S3154400324070B5064602F03CFB154D0446286822300C
S3154400325002F0C7FD01461020C141601A30602D6856
S315440032602846363002F0BDFD01461020C1410F48C4
S315440032706A7C611A407C052A1FD019E0E0FF0000F1
S3154400328084000020F38F000040A0010000A5010047
S31544003290FFFB000080A10100FFBF0000FF7F00008C
S315440032A090000020FFFD000080F70000000400208D
S315440032B04004884203D2012070BDC001F9E70020D2
S315440032C070BDF8B5F8480068808A000418D403260F
S315440032D03607B08AF54FB782F54C202122680D2077
S315440032E04003101841846846FFF7AAFF00250128C9
S315440032F007D0B08AB78221680D2040030818458458
S31544003300F8BDFFF764FFE848012100684174532182
S31544003310095C00290ED081221156E64A10311F2934
S3154400332021680AD889182823CB5E990223689A18FB
S31544003330528D09E0058345830BE08B182C21595E99
S31544003340236889029A18D28DD2B211430A0C028399
S315440033504183D9498182F8BDF8B5D34FD74D3968F1
S31544003360D34EA0314878D64CC00707D1A88AD54851
S31544003370A88201203268C002121910810020C87048
S31544003380FFF7EBFB3868A03040784006400F06282C
S3154400339001D101F02BFE3168C9480818848BFFF728
S315440033A039FD282C43D0502C43D0782C43D0A02C24
S315440033B043D0C82C43D0F02C43D00020A98A832183
S315440033C0A98232680102BB481218D184A98ABE492F
S315440033D0A982BE49326812181184A98AFF21A9829A
S315440033E001213268890212189184A98A8021C9432D
S315440033F0A98233688022B2495B181A84AB8AD343C4
S31544003400AB8233681818C284A88A1F20C043A88296
S3154400341032680C20511848853868A121095C062277
S315440034200907490F511A8C4080308484F8BD012025
S31544003430C4E70320C2E70520C0E70720BEE709200A
S31544003440BCE70B20BAE700B5974900230968DB437C
S315440034500A46A032D0700B84022393700022403176
S31544003460CA75FFF77AFBFFF752FB00BD8E48002171
S315440034700068017781758182A121095C8030CA097F
S31544003480818C002A00D04900C1840020DBE700B5C6
S31544003490854900230968DB430A46A032D0700B8471
S315440034A00223937000224031CA75FFF756FBFFF79B
S315440034B02EFB00BD10B51446411A09D040001A1B14
S315440034C0504302F0A9FC401C4010201800B210BD25
S315440034D0D018C10F08184010F8E7F1B5724FA12172
S315440034E038680126095C00258C4609074A0F31468F
S315440034F091404CB2017F827D82B0914201D38B1AB6
S3154400350002E0BF239B1A5B189BB28382BF2901D377
S31544003510002700E04F1CFFB20097BA4203D10127AF
S31544003520BF033B438382914204D1818A01225203E1
S31544003530114381821F21029AC943614F012A23D133
S315440035408030C08C00281FD16046C0091CD060461C
S31544003550C00700D020210846FFF76CFA5748818AF5
S315440035605B4981825048012200689202A03041782A
S31544003570C907C91789028A184D490968C9190A81B0
S3154400358041784906490E4170494801684C48081833
S31544003590808F454BC20A1868014680318A72C98CAD
S315440035A0002975D0062A73D1017DBB2970D24049C2
S315440035B00A68404951183027CF5F0246A0329178B5
S315440035C004290FD80323D3560620002F03DB411AC0
S315440035D03046884003E0411A304688404042181835
S315440035E0D07043E00023DB4305290BD0002F11DDC7
S315440035F02021415E00291FDB032151561F2917DA7A
S31544003600491C13E003201056002F00DB0123C01889
S31544003610D07028E0002F0FDA2021415E002915DC06
S31544003620032151561F23D94202DD491ED1701AE0A7
S315440036304030C6754D0116E0032151564B011A46DA
S3154400364020322025455F3946284605E0032010569A
S3154400365042011346203B3846FFF72CFF05461248E5
S3154400366000684030C6751048006807840E480068F4
S315440036700146A0318A780746521C8A704037FA7D43
S31544003680012A06D003200856FFF767FAFFF73FFAE8
S31544003690FEBDBA88037FD3180E4AD554009A0277E2
S315440036A0BF2A19D3002318E090000020DFFF000052
S315440036B08400002040A0010001EC0000000000301E
S315440036C000A00100FFF70000F30F00000CB000005B
S315440036D0FFFB000000010020531CBF882D04BF18C7
S315440036E0F84A2D0ED55503778030C28C521E93B2BC
S315440036F0C3840022CA70029DF34A012D1AD04D7824
S31544003700ED090ED0808C83420BD103200007838AB7
S315440037107C23DB438382ED4804230568EC48281860
S31544003720C38403252D07A88AEA48A882002C1DDDF8
S3154400373001201CE003230D2500201B076D030126F1
S31544003740760207E09C8A9A82E04C246864192681B2
S31544003750401CC0B24C786407A70F0124BC40844285
S31544003760F0DC03200856FFF792FEFEBD0020DA4B3C
S3154400377080021843D54B1E680D277F03F619308106
S31544003780012200205202664208E0AB8ACE4BAB824D
S31544003790CE4B1B68DB191A81401CC0B2002C01DBDE
S315440037A0234600E033468342EFDC03200856FFF706
S315440037B04AFEFEBDF0B5C94E002430688475848245
S315440037C0FFF728FB03252D07A88A0320A882BF4FAD
S315440037D03868BF494018C4843068A030C470204655
S315440037E0FFF7BBF9A88ABB48A88239680D20400375
S315440037F009180C81A98ABA49A9823968081804812A
S31544003800F0BD00B5B54900200968A031C870FFF77E
S31544003810A4F900BD10B5B14C00212068017781752B
S3154400382081820221A03081704078C00701D02020D7
S3154400383001E01F20C043FFF7FDF803200007818AFB
S31544003840A8498182206801230246A03041789B0220
S31544003850C907C9178902C9189C4B1B680D24640300
S315440038601B19198141788023194341704807810FF8
S315440038704020C8408032D0840020FFF708FE10BDA7
S31544003880F0B5FFF761F9954F3968403148761F2006
S31544003890FFF763F98D4C20680D256D034019828A24
S315440038A0396808464030C27322685219928A121205
S315440038B002741E22D243CA84C07C002847D0022008
S315440038C0FFF7B8F8386800260685067786751F2000
S315440038D0FFF7D0FA39685320425C0007002A08D023
S315440038E0828AFF228282012223685202784FDB19A0
S315440038F09A848E82818A2021C9438182226820212A
S3154400390052191184818A784D858201272268BF0322
S31544003910764952189781828A754E86822368721C2C
S315440039205B189A81838A858223685B189F84838A7D
S315440039308682236859188A84818A0821C9438182E8
S3154400394021680820624A403289180880F0BD1F2049
S31544003950C043FFF76FF80120B2E770B50446FFF79E
S3154400396059FA03210907888A624B8B82574AE00633
S315440039701568C00E0D267603AD196885888A5E489B
S3154400398088825E4D16685248361835848D8AFF25DE
S315440039908D8201251668AD0230188584888A8B820B
S315440039A01068524940314018C48570BD00B5FFF7D0
S315440039B0CBF84A495922096850540020087788753B
S315440039C01C20FFF7CAFF00BD70B5FFF700FCFFF7E8
S315440039D021FA03200007818A3021C94381823B4A68
S315440039E0002113680D2464031B195984838A3D4BB3
S315440039F083821368424D5B195984384B1B68D975C9
S31544003A0099759982838A2023DB43838213681B1921
S31544003A101984838A344D85821468344BE418A18111
S31544003A20848A334E86821468E418A181848A858206
S31544003A301468E418A184848A86821068C018818434
S31544003A4070BD10B5002300281CD02E4C0022A04285
S31544003A5000D92046521C400052B20028FADAD41744
S31544003A60E40EA41864096401121B1F24A21AD2B2DC
S31544003A700A70082A09D2000E0006A21AD040C0B223
S31544003A800B7010BD0B70002010BD000ED21F0A70C3
S31544003A9010BDF0B503242407A18A0E49A18200284B
S31544003AA001DD012100E00021174A8902074E8918E9
S31544003AB032680D277F03D2191181012300215B024D
S31544003AC045422BE000010020FFFD00008400002059
S31544003AD040A00100808B000001700000900000208F
S31544003AE0FFF70000FFFB0000FFBF0000C0A4010079
S31544003AF0FF7F0000E0FF0000F30F00000CB0000061
S31544003B0080A10100FFFF7F0001400000A28AFE4A17
S31544003B10A2823268D2191381491C49B2002801DBBA
S31544003B20024600E02A468A42F0DCF0BDF0B50E2794
S31544003B300022F64DF64EFF43F64C0F23002916D0CD
S31544003B40002809D0104609E0296889198988890618
S31544003B508916791AC184F0BD1F461846FFF71FFB24
S31544003B602068C17D0909C9438907EDD1F0BD002804
S31544003B7001D0104601E01F461846FFF7F8FA2868B8
S31544003B8080194088216880068016381AC884F0BD9A
S31544003B9040000F3840B2704730B5DE4C00202168F3
S31544003BA0DA4A08851068DA4BC01880888006801681
S31544003BB0FFF7EEFF2168803148701068C0184088CE
S31544003BC080068016FFF7E4FF216801220B46803306
S31544003BD098709A56002A01DB154600E055420028A3
S31544003BE001DB034600E043429D4203DD0B8D042581
S31544003BF02B430B85002A03DD0A8D02231A430A85CB
S31544003C00002803DD088D012210430885CA7D9006ED
S31544003C10800F13D0012820D0022821D003280CD1AC
S31544003C20088D01218007C00FFFF780FF2068008DB3
S31544003C30C007C00F0021FFF779FF30BD2820085E7A
S31544003C40042801DB012100E00021042802DB80076F
S31544003C50C00FF0E7C007C00FEDE7D007C00FE9E794
S31544003C60D007C00F0121E6E7F8B5FEF76DFFA94C72
S31544003C70A64D21680A464032507628680D235B03D8
S31544003C80C018808AD0732868C018808A002700121A
S31544003C9010748F82C87DA24E03079F489F4AB38AF9
S31544003CA0B08203D528688018078003E02B68082073
S31544003CB09A181080C87D4007400F030002F07AF935
S31544003CC008050E1B2F43435E66451F20FEF745FF3E
S31544003CD0216850200856FFF7ADF918E01E20C0436E
S31544003CE0FEF73BFF216850200856FFF7A3F921E071
S31544003CF02168C88429E00020FEF72FFF2068403061
S31544003D00C07C002805D00120C043FEF793FE1F2047
S31544003D10EEE72020FEF78EFE0020C043F5E70020A4
S31544003D20FEF71BFF20684030C07C002805D00220E7
S31544003D30FEF780FE1E20C043DAE71F20C043FEF78D
S31544003D4079FE0120F4E7FFF727FF2068C07D40078E
S31544003D502BD4FFF7BFF820685321095C002922D0F1
S31544003D60C07D81071FD56D49C207FF204039002A0F
S31544003D70B28AB08212D00120400211E02020FFF71F
S31544003D8088FE0020C043FFF784FEC0E71F20C043DF
S31544003D90FFF77FFE0120FFF77CFECBE70120C00240
S31544003DA02A6851188884FEF7B2FEFFF719F820688E
S31544003DB05E30FFF720F8206887750777478787873F
S31544003DC0F8BD10B501F07CFD524909688884000CA1
S31544003DD0488410BD7CB5064608686946C008FFF7A6
S31544003DE030FE4C4D442229684E4C525A0B7FD21811
S31544003DF0A054087FBF2801D3BF2000E0401C0877A9
S31544003E0001A93068FFF71DFE694609780A0169462B
S31544003E1009790A4329680B4640339D880E7FAD19BC
S31544003E2062550A7FBF2A01D3BF2200E0521CD2B298
S31544003E300A779B889A18A054087FBF2801D3BF20CD
S31544003E4000E0401C08777CBD70B5324A0E231468E6
S31544003E500025E3842D4B2E4C00292BD000281868CE
S31544003E6011D00019808880068016FFF791FE1168EC
S31544003E7081268E57B0421ADA18680019808880065F
S31544003E808016401C10E00019808880068016FFF7D3
S31544003E907FFE116881268E57B04208DD18680019E6
S31544003EA0808880068016401EFFF779F970BD106839
S31544003EB0C58470BD0028186811D000194088800652
S31544003EC08016FFF765FE116882268E57B042EEDAF9
S31544003ED018680019408880068016401C10E00019B6
S31544003EE0408880068016FFF753FE116882268E5757
S31544003EF0B042DCDD18680019408880068016401EF2
S31544003F00FFF735F970BD0000FFFD00008400002076
S31544003F1080A2010090000020F7FF000080A001006D
S31544003F200000003000010020F0B585B0002069464D
S31544003F30FE4F08723868818A09047DD403252D070B
S31544003F40A98A2021C943A982F94C202122680D2639
S31544003F507603921951845321095C002911D02621F4
S31544003F60415E10311F2902D9C07D80070DD42068D7
S31544003F70F04942182820105E226880025118498D63
S31544003F800CE002A8FEF737FF0AE02068E949421828
S31544003F902C20105E226880025118C98DC9B208438C
S31544003FA0009001A8FFF74CF90390E04807683846AB
S31544003FB03A3001F016FF1021C84100994018884252
S31544003FC001D20020C04303990090012921D0F98CE5
S31544003FD000291ED0D849897C090181427CD22722F6
S31544003FE001991202914205D8D44A914274D9F97D75
S31544003FF0490671D501A96846FFF7ECFECB4A11681C
S31544004000CB7DD807CE48085E20D000281CDA401C59
S315440040101FE001A96846FFF7DDFE6846007A0028DE
S3154400402010D0002001218003C9034118039840039E
S315440040300143BE48006800E002E0027F11438182EA
S3154400404005B0F0BD0120EDE7002002E00028FBDDCD
S31544004050401EC884980740D55320475C0120B94A7E
S315440040604002002F01D05F0705D5A98AAA8221689C
S315440040708919088166E0DB07FF27002B13D0262326
S31544004080CB5E103312D13E20C043FEF7D3FC012051
S31544004090FEF7D0FCA88AAF82012122688902A5488E
S315440040A0101881844EE0C98C0F2905D0A98AAA82AA
S315440040B0216889190881D8E73F20FEF7BBFC002018
S315440040C0C043FEF7B7FCA88AAF820120226880026B
S315440040D098495118888435E051E0944F58072DD5B6
S315440040E09806800F06D0012815D0022816D003283A
S315440040F028D117E02820085E042801DB012100E0CE
S315440041000021032802DB8007C00F01E0C007C00F6F
S31544004110FFF79AFE16E0D807C00F0DE0D807C00F88
S315440041200121F5E7088D01218007C00FFFF78CFEBA
S315440041303868008DC007C00F0021E9E7C88C40B23B
S31544004140FEF70BFDFFF73DFE7848002700684787DA
S315440041508787FEF7DCFC02A8FEF74DFE0090A88A8E
S315440041602020C043A8822068801947846F4800688D
S31544004170C18C027F4906490C0A43828260E7010CDE
S315440041807987B887FEF7C3FCA88A2020C043A88253
S315440041902168002089194884E8E7F0B50320000720
S315440041A0818AF021C9438182614AF02114680D2332
S315440041B05B03E418E180818A6349818214680021A3
S315440041C0E4182181848AE024E44384821468E41850
S315440041D02184848A3224E44384821468E418618402
S315440041E0848A5A4D858216680D24F3185C85838A21
S315440041F0574B838214684F4BE4182180848A554E6A
S3154400420086821468E4186180848A86821468E41875
S31544004210A180848AB41C84821668F618F180868A42
S3154400422084821668F6183181868A84821468E41872
S315440042306181848A484C84821468E418A181848A02
S31544004240AC11848221261768B602FF18FE81868A3D
S31544004250832686821668F6187182868A3F4E86823F
S315440042601668F6183183868A7F2636028682166851
S31544004270F6187183868A848231241668A402F61855
S31544004280B483848AFF24043484821468E418218421
S31544004290848A81821468E4186184848A81821468D9
S315440042A0E418A184848A81821468E318D984838AB1
S315440042B00823DB43838213681E4C40341B19198040
S315440042C0838A274B83821368264C1B195984838A15
S315440042D0214BC13B83821468234BE4186180848A52
S315440042E081821468E418E185848A81821468E4181A
S315440042F02186848A81821468E4186186848A81824C
S315440043001468E418A186848A81821468E418E186D4
S31544004310848A81821468E4182187848A8182146895
S31544004320E3185987838A0A4E20361FE090000020FE
S315440043308400002040A0010000040020CC070000B7
S3154400434026000000FFFD000080810000E0FF000021
S31544004350DF3F0000FD130000C0C00000FD0F000059
S31544004360FFFB000080A1010080A40100868214683E
S31544004370F84BE418A181848A86821468E3189984E8
S31544004380838A85821068F34A40328018C185F0BD1D
S31544004390032109078A8A00228A82EF4900020968B2
S315440043A00D2252038918803048837047032212072E
S315440043B0938A3F23938209070001090F08430002A9
S315440043C0802140300843E44909680D225203891884
S315440043D04883704710B500221146E04C07E0C307F6
S315440043E002D04B00E35A5A40491C89B2400800287F
S315440043F0F5D1104610BDF0B5D748D94D00680D210A
S3154400440049034018868B00273C4609E0385D290A53
S315440044104840FFF7DFFF29024840641C85B2A4B236
S31544004420B442F3D32846F0BDFEB5CB4E31680D27D2
S315440044307F03C919498BCB4A090A146800252246C9
S3154400444080320192C84A0300527DD200009222462D
S31544004450A0320292603A01F0ADFD190E1918183FC8
S3154400446067F8FAFFF4F3F2F1F018EFEEEDECEBEA4D
S3154400447018E918E8180003200007818AC021C943B7
S31544004480818231688020C9194883FEBD002905D040
S3154400449001290ED0022916D0012146E2907C00283B
S315440044A0F3D00120607401980121807C01F0DDFA8B
S315440044B037E20198AB4C807C012101F0D6FA2168A1
S315440044C0012048742DE2507A0121084350726574E4
S315440044D001980021807CE9E7002906D001290BD008
S315440044E0022913D00329E3D117E003200007818A68
S315440044F0858201F0ECF905E003200007818A858274
S3154400450001F0E1F93168C91988830AE203200007FA
S31544004510818A85820198807CF4E703200007818A9A
S31544004520858201F00DFAEDE7891E0B0001F042FD8C
S315440045300524314B5D050400A7E7617C02295AD264
S31544004540D37C012B70D8937C002B01D100299CD0BD
S3154400455011763068C019808BE084FEF702FD0100B5
S3154400456001D006204FE07F480521006841740321AD
S3154400457009078A8A8D822BE1907C002802D1607CCF
S31544004580002882D0607C107601206074FFF70EFA12
S31544004590C7E1507A012108435072607C714E02286B
S315440045A00AD37248704C0560714860812081411C71
S315440045B0704801F012FC6575FFF706FA3068582119
S315440045C0095C4174ADE1607C022811D2D17C012999
S315440045D02AD8917C002901D10028ADD06249012016
S315440045E04875607C1076022018E0607C022803D36C
S315440045F000990143C9B2ABE0D17C012914D8917C1E
S31544004600002905D102E0FFF7D1FEFEBD0028FCD00B
S31544004610554901204875607C107603206074FFF785
S315440046202FF9FEF774FA7CE1B1E045E111E109E1C5
S31544004630D0E0E9E0D4E083E037E02DE021E018E083
S3154400464012E00CE008E002E0FFE7605C1FE030683F
S31544004650C019808B605464E14348405C17E030687D
S31544004660C019808B404A1EE0601840780202605CA4
S315440046700CE03068C019808B6054000A6118487099
S315440046804FE1394842185278405C120210430321E4
S3154400469009078A8A8D8235E73068C019808B324A89
S315440046A0030A5418637050543BE1607C022844D298
S315440046B000290FD0012922D00229A6D12A482B4904
S315440046C045750D602A4941810181491C294801F0FB
S315440046D084FB30E0002300951A46112102200195FF
S315440046E001F0B0FA2049012048754889204A0881DA
S315440046F0904201D1002000E0401C088111E11A4A91
S315440047001C4811895389405C994203D1FF210131E8
S31544004710084306E0164B994201D1002100E0491CAA
S315440047201181032109078A8A8D823268C1B2D2195E
S315440047309183000A67D0012081E00021052062E7C9
S31544004740607C8446022817D3009861460843C1B268
S315440047500C2058E7C0A4010084000020AE3F0000AE
S31544004760FFFF000090000020000400208800002085
S31544004770FF02000000010020480705D53368F848C9
S315440047801B185B8EDB0705D0D07C012809D9022192
S315440047900D2038E731680818408EC107C90F082034
S315440047A031E7907C002803D16046002800D12CE7ED
S315440047B0EC4B01205875607C107604206074E175DA
S315440047C0FFF752FA03200007818A8582E64800688B
S315440047D0C08C97E6507A01210843E34E5072E0E6D6
S315440047E09088A17D4118E148405C032109078A8AE3
S315440047F08D823168C9198883A07DBF2801D30020E2
S3154400480000E0401CA0758CE09188A07DD74A0B1827
S31544004810D35CBF2801D3002000E0401CC0B2A07581
S315440048200918515CBF2801D3002000E0401CA07544
S3154400483003200007828A85821802084362E6FFF74E
S31544004840A7FDFEBD03200007818A8582FFF7D3FDBD
S3154400485058E60298C44E41704806400F012817D0C6
S31544004860022803D0052835D00628EAD1607C0228E0
S3154400487000D3BDE6917C002901D10028E1D0B94995
S3154400488001204875617C11766074FEF765FD48E049
S31544004890607C002847D006206074FEF7E7FD40E0C0
S315440048A0A582FEF787FF3068014640310A7E42748E
S315440048B0A03045700D7634E03068C019408B0299BB
S315440048C0000A4870A84E4006400F12D0012821D055
S315440048D00228B6D1607C0228E2D3A548A14F0560E0
S315440048E0A44878813881411CA04801F076FA7D7548
S315440048F0D6E7607C0228BCD2917C002901D10028ED
S315440049009FD0984901204875617C11766074FEF702
S3154400491078FF06E0607C002805D007206074FEF727
S3154400492079FF00208BE70098C1B201206BE630B5D1
S315440049308D490020096808860C4648864034207212
S31544004940627A0B46520852006272A072E072207379
S315440049508033D873834AA073927FE2730A466032E7
S315440049602074D075187158710887C8862075A0754B
S31544004970107150715872E07748859071D0711072F9
S315440049808885C88550721075D07450759075507668
S315440049909076D0761077987518760125DD75608007
S315440049A058769876D876488248738873C87308745C
S315440049B050779077D07718701076987188861874E7
S315440049C088828875C8750883488330BD10B5FFF75B
S315440049D0E4FBFFF7ACFF644800688079C0070BD15D
S315440049E003200007818A0F21C9438182624900203E
S315440049F00968624A8918488000F0F8FA10BD70B513
S31544004A0000F065FF574AD188002914D0CB08C01A54
S31544004A100818D080107B012114280ED2584B594DCA
S31544004A2043435B199B12D4885B1C5B109C4204DC99
S31544004A30D174401C0FE0C000EBE700280DD0504B6A
S31544004A40514D43435B199B12D4885B1C5B109C42BB
S31544004A5003DBD174401E107370BD0020D07470BD4A
S31544004A6070B526213F4801F0B8F93E4C26202080F7
S31544004A704648A0800B20A07300262073E674267552
S31544004A80667500F024FFC000E0800025FFF7B7FFFD
S31544004A906D1CEDB2082DF9D3374A1068304B403BB4
S31544004AA0C018C08F28210007000FE0732674012028
S31544004AB06073A1750421E175102121766676A0768E
S31544004AC00221E17603212177242161772021A177F0
S31544004AD00521E677C90121840B21890161840321DB
S31544004AE009078D8A0F25ED438D8212680F21D2184E
S31544004AF051841C49203108715F21C9001B4801F0CB
S31544004B006CF91B4806601B4860812081411C17488C
S31544004B1001F063F970BD1448002100680A23024677
S31544004B20018040329371D171C172817201734173B4
S31544004B3081730174C17341824174917401718171AD
S31544004B40C17101724172417702224271012282701F
S31544004B50024680321172D177A0300170E7E6000038
S31544004B6080A10100000400209000002000010020E4
S31544004B7088000020FF0200008400002080A001007D
S31544004B809956FCFFE6F7D3005A60DA0002D10000DA
S31544004B9070B5694D2868694E8019C18E2868801998
S31544004BA0008F8A044B05520F5B0FD21889065208B0
S31544004BB0890E51188204530FC206D20E9B188409DB
S31544004BC0E40700D05B424405640FA2184009C007BD
S31544004BD000D052429818431028688019408F8006A6
S31544004BE0841628688019408F4005C216286885199E
S31544004BF03A20285EC012002900DA4942002B00DA26
S31544004C005B42C918002C00DA64420919002A00DA0A
S31544004C1052428918002800DA4042081880B270BD12
S31544004C20F0B5454D2868454A8018C18E28688018D5
S31544004C30008F2B689B185B8F5B05DB121C0C2B6863
S31544004C409B183A229A5E8B044E055B0F760F9B198E
S31544004C5089065B08890E5E188104C3065201490F12
S31544004C60DB0E120CC9188709FF0700D049424705D5
S31544004C707F0FFB184009C00700D05B42C81829685B
S31544004C8043102E480818408F8006811648005D1848
S31544004C908446401965002A4C4019246880182488A3
S31544004CA000B2A706BF0F022F09D1640707D55800E3
S31544004CB080194118604608184019801800B2F0BDA2
S31544004CC000B5FFF765FF81004000081880B200BDBB
S31544004CD000B50022FDF738FF002801DA40420122E0
S31544004CE015490968154B4033C9180988C908C907C5
S31544004CF0C90F02D04000134902E01249400040392E
S31544004D00085E002A01D0404200B200BD10B503211E
S31544004D1009078A8A8A138A82074A80061468C30D59
S31544004D2006482418E3828B8A074B8B821268591CE7
S31544004D301018C18210BD00008400002040A001006C
S31544004D4090000020FE3F0000FF7F000030B50322A4
S31544004D501207938AFE4B93824402FE480568FE4B33
S31544004D60ED18EC82948A7F24640294820468E418E1
S31544004D70E182918AF949918205684C1CED18EC82CE
S31544004D80948A918200680021C018C18230BDF0B572
S31544004D9003200007818AF2498182EE4901230C6887
S31544004DA05B03F04AA418E381838AEF4B8382012391
S31544004DB00C689B03A418E381838AEB4B803383827C
S31544004DC009230C685B02A418E382838AE74D858233
S31544004DD00E681424E34B4033F6183484868A85825D
S31544004DE00E68F6187484848AE14C848201260F681E
S31544004DF07602FF183E84878A84820F68FB185E8495
S31544004E00838A85820D680023AD186B82858A8482E5
S31544004E100D68AD186B82858A8482086880188382FF
S31544004E201124E0B20021FFF791FF641C182CF8DB33
S31544004E30F0BD70B503242407A08AC848A082C54D96
S31544004E40401C2968C74E8919C881A08A3F20C0439F
S31544004E50A08229681420C04A8918C8811F20FFF7F8
S31544004E6055FFA08A0F20C043A08229680420BA4A6D
S31544004E70403289184880A08A7F20C043A08229688E
S31544004E80242089190883A08ABA48A08201222B6863
S31544004E909203B44940315B181A84A38AA0822B68D2
S31544004EA05B185A84A28AA0822B68002259188A84E5
S31544004EB0A18AA082296889194A82A18AA08228687F
S31544004EC08019828270BD10B503200007818AA649E5
S31544004ED08182A04A00231468A24964186384838AA1
S31544004EE09E4B83821268581C5118488410BD10B5D5
S31544004EF0032109078A8A9F4A8A828202954803685F
S31544004F00984C1B199A828A8A9B4A8A82052304688A
S31544004F105B02914AA41863828B8A984B8B8207233F
S31544004F2004685B03A41863828B8A2023DB438B8249
S31544004F3004682023A41863828B8A1023DB438B8264
S31544004F4004681023A41863828B8A4023DB438B8234
S31544004F5004680023A41863828C8A0C24E4438C825C
S31544004F6000688018438210BD70B5032109078A8AF8
S31544004F70804A8A828202774803687A4C40341B19F5
S31544004F809A848A8A754B8B8205685C1C724AAD1872
S31544004F902C838C8A8B8204680023A41863838C8AAE
S31544004FA0774C8C820468A41823838C8A754C8C8233
S31544004FB00468A41823838B8A0223DB438B82046808
S31544004FC00223A41823838C8A0F24E4438C82046826
S31544004FD0A41863838B8AF023DB438B8200682021E9
S31544004FE0801841830020FEF725F870BDF0B50320F4
S31544004FF00007818A5C498182564901230C689B03D8
S31544005000584AA2189384828A544B83820C685D1C46
S31544005010544AA2189584828A7F22520282820E685A
S3154400502000244D4AB618F482868A494E86820F6811
S31544005030AE11BF18FE82868A83820E68B618F58240
S31544005040868A83820E68B618F482868A404E8682A1
S315440050500F686E11BF18FE82868A83820E68B61860
S31544005060F582868A83820E68B618F482868A384E1A
S3154400507086820F68C614BF18FE82868A83820E68AB
S31544005080B618F582868A83820E68B618F482868AB2
S315440050902F4E86820F682E11BF18FE82868A83821F
S315440050A00E68B618F582868A83820E68B618F4822C
S315440050B0868A274E868205260F687602BF18FE82A8
S315440050C0868A83820E68B618F582868A83820E683B
S315440050D0B618F482868A1E4E86820F688614BF18D6
S315440050E0FE82868A83820E68B618F582868A838211
S315440050F00E68B618F482868A154E868207260F688D
S315440051007602BF18FE82868A83820E68B618F582B6
S31544005110868A83820E68B618F482868A0C4E868204
S315440051200F68EE10BF18FE82868A83820E68B61810
S31544005130F582868A83820E68B618F482868A044E7D
S31544005140868209260F687602BF18FE82868A1BE08D
S31544005150FFC100008400002040A00100FF7F000042
S31544005160FFDF0000C0A40100FFBF0000E0FF000015
S315440051701FFC0000FF830000FFF00000FF0F00004B
S31544005180FF9F0000FFEF000083820E68B618F58289
S31544005190858A83820D68AA18D482828AFE4A8282CC
S315440051A00D68FE4AAA189484828A83820968FB4859
S315440051B008188484F0BDF8B51F20FFF7A7FD032423
S315440051C02407A08A0F20C043A082F54E07203168E9
S315440051D0F44D49194880A08A7F20C043A082326892
S315440051E02221EE48101801830020FDF723FFA08AF0
S315440051F00820C043A08231680820491908801E202F
S31544005200FDF7ABFC1125E8B20021FFF79FFD6D1CAD
S31544005210172DF8DBA08AF020C043A082E048C021C5
S3154400522000680D277F03C019C180A08ADE48A0828A
S31544005230DB4A012113688903D84A40329B181984F2
S31544005240A38AA082D64B1B689A185184A18AA0824D
S31544005250D34800250168D148081845822846FFF7F7
S3154400526046FED2481921006860300170A08AD04EAB
S31544005270A682CB48711C0268CA484038121811836A
S31544005280A18AA682C649096809184D83A18AA682BD
S31544005290C349096809184D80A18AA682C04909688C
S315440052A009188D80A18AA682BD4909680918CD804E
S315440052B0A18AA682BA49096809180D81A18AA682DB
S315440052C0B7490968081845811020FFF74DFEA08AA2
S315440052D02020C043A082B24920200968C919088405
S315440052E0A08AE81EA082AE480068C0194584A08AF8
S315440052F0A81EA082AA4801250068C0194584AD4865
S3154400530000F0EBFAA6480068A44940394018808F5B
S31544005310C00703D000F005FB00F0F4FAA3480022CE
S3154400532000689F210A54A0210D549D490B689D4D48
S3154400533080355B19DB8A1B071B0F4030C374A08A78
S31544005340A6820B6895481B185A84A28A924AA2825E
S3154400535001220968920308184284F8BDF0B5032077
S315440053600007818A924C84828D4900230D688D4AB8
S31544005370403AAD182B83858A84820D68AD186B83B9
S31544005380858A84820E68651CB6187580868A8482EE
S315440053900E68B618B580868A84820E68B618F5807B
S315440053A0868A84820E68B6183581868A84820E6817
S315440053B0B6187581868A84820C68A4182580848AE6
S315440053C0754C84826C100D68AD182C80848A7A4E94
S315440053D086820D680224AD186C80858A86820D68A3
S315440053E0AD18AC80848A3F24E44384820C68202729
S315440053F0A418A781848A714C84820D683C02AD1836
S31544005400AC81848A6E4C84820D68AD186B80858A23
S315440054106C4D85820E68B6187380868A84820E68BF
S31544005420B618B380868A85820E68B618B380868A93
S3154400543084820E68B618F380868A85820E68B6180A
S31544005440F380868A84820E68B6183381868A85827A
S315440054500E68B6183381868A84820C68A4186381E0
S31544005460848A85820C68A4186381838AFB43838279
S31544005470086880180780F0BDF0B503242407A08A85
S315440054804B4EA682464D00202968464F403FC919D7
S315440054900883A08AA68229680020C9194883FFF791
S315440054A05DFFA08A4048A0820120296880033B4AC8
S315440054B0403289188884A08AA6822968701CC91932
S315440054C04880A08A4020C043A0822A6840210D20FB
S315440054D0400312181184A18A2021C943A1822A6853
