S3150004000000000000000000000000000000000000E6
S3151C0000005CF09FE55CF09FE55CF09FE55CF09FE58E
S3151C0000105CF09FE500F020E358F09FE504F05EE2FB
S3151C00002000F020E304F05EE200F020E304F05EE260
S3151C00003000F020E3180050E30300001A38009FE587
S3151C000040000051E10000001A14F09FE500F05EE28A
S3151C00005000F020E304F05EE200F020E304F05EE230
S3151C00006000F020E31005001C2C00001C3400001CB2
S3151C0000705400001C5C00001C2400001C260002000E
S3151C0000800000A0E1010000FA1FB51FBD10B510BD90
S3151C000090DFF80CD0FFF7F8FF00F058E900F0FFF985
S3151C0000A01080040003B4FFF7F1FF03BC00F0FEF957
S3151C0000B0F0402DE90040A0E10150A0E10260A0E162
S3151C0000C014709DE5090054E304F18F30200000EA0A
S3151C0000D01F0000EA060000EA080000EA0A0000EA1F
S3151C0000E00C0000EA0E0000EA100000EA120000EA0A
S3151C0000F0140000EA00F020E3F0119FE5170000EA67
S3151C00010000F020E3E8119FE5140000EA00F020E36C
S3151C000110E0119FE5110000EA00F020E3D8119FE5ED
S3151C0001200E0000EA00F020E3D0119FE50B0000EA68
S3151C00013000F020E3C8119FE5080000EA00F020E368
S3151C000140C0119FE5050000EA00F020E3B8119FE509
S3151C000150020000EA00F020E30300E0E3F080BDE8C3
S3151C00016000F020E3080091E58000C0E3080081E56B
S3151C0001700100A0E30C0081E50020A0E3010056E38A
S3151C0001800000001A402082E3000053E30000000A2E
S3151C000190012082E3000057E30400000A040057E331
S3151C0001A00500000A080057E30900001A050000EACA
S3151C0001B000F020E30C20C2E3080000EA00F020E374
S3151C0001C0042082E3050000EA00F020E3082082E315
S3151C0001D0020000EA00F020E30300E0E3DEFFFFEA92
S3151C0001E000F020E3022082E3005081E5082081E52F
S3151C0001F0080091E5800080E3080081E50000A0E38B
S3151C000200D5FFFFEA38402DE90040A0E10800A0E335
S3151C0002100030A0E30320A0E10010E0E300008DE520
S3151C0002200400A0E1A1FFFFEB3880BDE810402DE9DA
S3151C0002300020A0E10130A0E1090052E302F18F3059
S3151C000240200000EA1F0000EA060000EA080000EA97
S3151C0002500A0000EA0C0000EA0E0000EA100000EAA0
S3151C000260120000EA140000EA00F020E37C109FE56F
S3151C000270170000EA00F020E374109FE5140000EA62
S3151C00028000F020E36C109FE5110000EA00F020E36B
S3151C00029064109FE50E0000EA00F020E35C109FE569
S3151C0002A00B0000EA00F020E354109FE5080000EA6A
S3151C0002B000F020E34C109FE5050000EA00F020E367
S3151C0002C044109FE5020000EA00F020E30300E0E38F
S3151C0002D01080BDE800F020E3040091E50040E0E357
S3151C0002E0000044E0000083E50000A0E3F7FFFFEAFE
S3151C0002F00020230320202303003023032030230364
S3151C0003000060230320602303007023032070230353
S3151C00031038402DE9AC009FE5004090E50F0A04E249
S3151C000320020950E30700000A00F020E30D10A0E1CB
S3151C0003300100A0E3BCFFFFEB301507E300009DE5C1
S3151C000340010050E1F8FFFF3A3880BDE878409FE590
S3151C00035078509FE578009FE5011800EB451800EBE7
S3151C000360000094E5000050E30000000AA90000EB21
S3151C000370000095E5781800EB6800A0E38A1800EBEE
S3151C000380442B05E34C109FE54C009FE5160000EB43
S3151C000390002800E344109FE544009FE5120000EB93
S3151C0003A05EF07FF55EF07FF56EF07FF57500A0E3DD
S3151C0003B07D1800EBD5FFFFEB0000A0E324109FE5A2
S3151C0003C0000081E5930000EBC01F240304100218F3
S3151C0003D0142F0118007E32012008001C0000320177
S3151C0003E00078001C007632010080320110402DE995
S3151C0003F0202052E20500003A1850B1E8202052E2B3
S3151C0004001850A0E81850B1E81850A0E8F9FFFF2AC8
S3151C00041002CEB0E11850B1281850A0281800B148D7
S3151C0004201800A0481040BDE802CFB0E1043091246A
S3151C000430043080241EFF2F01822FB0E1B230D12060
S3151C0004400120D144B230C0200120C0441EFF2FE140
S3151C0004504FF0000200B5134694469646203922BF3B
S3151C000460A0E80C50A0E80C50B1F12001BFF4F7AF86
S3151C000470090728BFA0E80C5048BF0CC05DF804EB68
S3151C000480890028BF40F8042B08BF704748BF20F8D6
S3151C000490022B11F0804F18BF00F8012B7047044641
S3151C0004A0AFF300802046FFF7FDFD00000149182030
S3151C0004B0ABDFFEE72600020070470000101F11EE9E
S3151C0004C0011AC1E30410C1E3021BC1E34FF07FF51F
S3151C0004D0101F01EE0EF0A0E180402DE90F70A0E385
S3151C0004E0071001E0121F06EE1F70E0E3070000E094
S3151C0004F0110F06EE3F7701E3073003E0913F06EE4E
S3151C0005000100A0E3820080E1510F06EE8080BDE869
S3151C000510DCD09FE50107A0E30217A0E30020A0E3BF
S3151C000520042080E4010050E1FCFFFFBAC4009FE5F3
S3151C0005300010E0E3001080E5BC009FE50A10A0E374
S3151C000540081080E50C1080E50020E0E3002080E523
S3151C000550801081E3081080E50050E0E398609FE579
S3151C00056098709FE5048096E5088045E0008087E545
S3151C000570D2F021E388D09FE553F021E30000A0E3ED
S3151C0005800010A0E31F20A0E32D3300E3D1FFFFEBF7
S3151C00059070009FE50110A0E31020A0E3053301E3E2
S3151C0005A0CCFFFFEB3206A0E30210A0E31220A0E36F
S3151C0005B0053301E3C7FFFFEB4C009FE50310A0E3E7
S3151C0005C00E20A0E3043301E3C2FFFFEB3C009FE5D2
S3151C0005D00410A0E30B20A0E3053301E3BDFFFFEBF2
S3151C0005E0100F11EE010080E3100F01EE20C09FE5F5
S3151C0005F01CFF2FE1108004001400080000202303B8
S3151C00060000102E01108404000000011800003201A5
S3151C000610008032018000001C0000A0E30010A0E353
S3151C0006200020A0E30030A0E30040A0E30050A0E3BC
S3151C0006300060A0E30070A0E30080A0E30090A0E3AC
S3151C00064000A0A0E300B0A0E310C09FE500F08CE57D
S3151C00065000F020E300F020E300F020E300F09CE52E
S3151C000660E80FFFFFB0FBF1F202FB110110467047C9
S3151C0006700000000000000000000000000000000058
S3151C0006800000000000000000000000000000000048
S3151C0006900000000000000000000000000000000038
S3151C0006A00000000000000000000000000000000028
S3151C0006B00000000000000000000000000000000018
S3151C0006C00000000000000000000000000000000008
S3151C0006D000000000000000000000000000000000F8
S3151C0006E000000000000000000000000000000000E8
S3151C0006F000000000000000000000000000000000D8
S3151C00070000000000000000000000000000000000C7
S3151C00071000000000000000000000000000000000B7
S3151C00072000000000000000000000000000000000A7
S3151C0007300000000000000000000000000000000097
S3151C0007400000000000000000000000000000000087
S3151C0007500000000000000000000000000000000077
S3151C0007600000000000000000000000000000000067
S3151C0007700000000000000000000000000000000057
S3151C0007800000000000000000000000000000000047
S3151C0007900000000000000000000000000000000037
S3151C0007A00000000000000000000000000000000027
S3151C0007B00000000000000000000000000000000017
S3151C0007C00000000000000000000000000000000007
S3151C0007D000000000000000000000000000000000F7
S3151C0007E000000000000000000000000000000000E7
S3151C0007F000000000000000000000000000000000D7
S3151C00080000000000000000000000000000000000C6
S3151C00081000000000000000000000000000000000B6
S3151C00082044670000C1000000BD030000BF030000B8
S3151C0008300000000000000000000000000000000096
S3151C000840000000000000000000000000C1030000C2
S3151C0008500000000000000000C3030000EB000000C5
S3151C000860C5030000C5030000C5030000C503000046
S3151C000870C5030000C5030000C5030000C503000036
S3151C000880C5030000C5030000C5030000C503000026
S3151C000890C5030000C5030000C5030000C503000016
S3151C0008A0C5030000C5030000C5030000C503000006
S3151C0008B0C5030000C5030000C5030000C5030000F6
S3151C0008C0C5030000C5030000C5030000C5030000E6
S3151C0008D0C5030000C5030000C5030000C5030000D6
S3151C0008E00348854601F0FAF8004800472B0D000026
S3151C0008F04467000078490020486188610A69774985
S3151C0009004A61886107200861704770B5724D0026E0
S3151C0009102868401C2860000E00281AD02E606869C2
S3151C00092006E0C1680A0E0902090A5118C160C069AD
S3151C0009300028F6D10DE0E068296888420CD8E069E9
S3151C000940686186612269002160699047204601F032
S3151C000950E5F86C69002CEED161480020C04670BDDC
S3151C0009605E490869C2035C4801D50122C260C2689F
S3151C000970594889690069002A02D0411A081870472B
S3151C000980401A704754480069704770B5FFF7E8FF76
S3151C000990514E0546F06800281CD00023F3603269CE
S3151C0009A0B069AD1A07E0C1688A4202D8891AC160CB
S3151C0009B000E0C360C0690028F5D10BE0E068A842DE
S3151C0009C00BD82269002160699047E069B061204616
S3151C0009D001F0A4F8B469002CF0D170BD70B50646C0
S3151C0009E0FFF7BEFF3C4D04460A21286901F028F892
S3151C0009F0B16848432418202001F0BAF800281BD0FF
S3151C000A00B168816031690161716941617168002356
S3151C000A10C460C3614160A9680160491CA960A969D9
S3151C000A2000290CD00022CE68B4420AD2C161002A29
S3151C000A3005D0D061002070BD0020C04370BDA861E8
S3151C000A40F8E70A46C9690029EDD1D061C361F1E70F
S3151C000A5070B5064680680A2100F0F2FF1E4D296813
S3151C000A604418202001F084F8002817D0B168816052
S3151C000A7031690161716941617168C460416069686D
S3151C000A800160491C696069690026002909D0CA6889
S3151C000A90002394421AD2C16168611AE00020C04347
S3151C000AA070BD8661C661F7E7CA69002A08D0D3689B
S3151C000AB09C4209D8C261CA699061C861816108E01B
S3151C000AC0C661C861836104E00B461146CA6894423C
S3151C000AD0EAD2002070BD0000CC13000000E000E04C
S3151C000AE02C14000008B50821002300911A46591E33
S3151C000AF000F026F808BD00B5030001F001F8091E38
S3151C000B0006080B0D101215171E00304810E02F4852
S3151C000B1020300DE02E480BE02D48203008E02D48F3
S3151C000B2006E02C48203003E02B4801E02A48203000
S3151C000B304068C0430860002000BD0320C04300BDC0
S3151C000B40F0B504461E460320C043230000F0D8FF20
S3151C000B50093706080B0D1012151737001B4C10E031
S3151C000B601A4C20340DE01A4C0BE0194C203408E0CA
S3151C000B70184C06E0174C203403E0174C01E0164CC9
S3151C000B802034A56880239D43A5600127E7600025C6
S3151C000B90012A00D14025002E00D03D43059A002A8B
S3151C000BA00ED0042A0FD0082A09D10820054302209A
S3151C000BB005432160A560A0681843A0600020F0BD15
S3151C000BC00C208543F3E70420F0E7000000202303F4
S3151C000BD0003023030060230300702303FEE7FEE7B7
S3151C000BE0FEE7FEE7FEE7000004490968016070475E
S3151C000BF010B52022024900F04DFF10BD405B0000DD
S3151C000C00E01700008F4A131D106019600020704702
S3151C000C10F0B58C4F0D4684468B488C498C4E3C1D3A
S3151C000C20FFF7F0FF002818DB874838600821C94306
S3151C000C30864801E0761E11D022688242FAD16246AD
S3151C000C403A6022682A60824A03E023682B60521E9F
S3151C000C5004D02B688342F8D00020F0BD0846F0BDB6
S3151C000C6038B50D46002100910121C906014376487D
S3151C000C70784C2430FFF7C6FF002818DBA00629187D
S3151C000C80714D28352846FFF7BDFF00280FDB694646
S3151C000C902846FFF7BDFF002809DB0098641E0028C4
S3151C000CA002DA002CF3D103E0002C01D0002038BD61
S3151C000CB00820C04338BDFCB50D46002100910191AA
S3151C000CC00121C90601436048624C2430FFF79AFF94
S3151C000CD0002822DB5C4E610628363046FFF792FF61
S3151C000CE000281ADB371D69463046FFF791FF00289E
S3151C000CF013DB01A93846FFF78BFF00280DDB009894
S3151C000D00641E400002D40198002802DB002CEAD1A4
S3151C000D1004E0002C02D028800020FCBD4E48288010
S3151C000D200820C043FCBDFEB50C4681B2000C4B4FDF
S3151C000D30D21C029101909508454E69463846FFF72C
S3151C000D40BAFF002843DB6846018803200002814362
S3151C000D50FF2001300143684601803846FFF780FFBB
S3151C000D60002834DB3D486946401CFFF7A4FF0028D9
S3151C000D702DDB68460088C00725D0002E25D0694685
S3151C000D803846FFF798FF002821DB6846018834485F
S3151C000D90014034480143684601803846FFF760FF2E
S3151C000DA0002814DB2D480299801CFFF759FF0028E8
S3151C000DB00DDB2A480199C01CFFF752FF274E361D32
S3151C000DC0002804DB14E0761ECCD10820C043FEBDEF
S3151C000DD0208881B23046FFF743FF0028F7DB2068E6
S3151C000DE0010C3046FFF73CFF0028F0DB241D6D1E6E
S3151C000DF0002DEDD10020FEBDF0B58C4601461A48EB
S3151C000E00002515E04A5D030A5A4000242346174F65
S3151C000E1007E0D60702D05E00BE5B74405B1C9BB22B
S3151C000E205208002AF5D1000244406D1CA0B2ADB296
S3151C000E306545E7D3F0BD0146401E80B20029FAD1B4
S3151C000E4070470000202101180C1100004E3C2B1A83
S3151C000E5010270000A0860100ADDE000002D20000B3
S3151C000E60FCEFFFFF01100000FFFF0000BC13000099
S3151C000E7070B5644C0146503103C4FF3145312160C5
S3151C000E800821616001460022FF3181310A614A61F5
S3151C000E908A61026201685C4D5C4E083CA94202D123
S3151C000EA04168B14206D00121490200F00CFE2068BF
S3151C000EB00560466070BD53490246903205C1FF303D
S3151C000EC0993008601020486070474E480068C16819
S3151C000ED0491CC16070474B4800680169491C016187
S3151C000EE07047484800684169491C4161704745483C
S3151C000EF000688169491C8161704742480068FF305F
S3151C000F0081308169016270473E490968FF31813130
S3151C000F10086270473B480068FF308130016A816176
S3151C000F20704710B53748016801200831FFF7E3FD0B
S3151C000F3010BD70B5334D0646FF202C689D300059F8
S3151C000F40052100F07DFD8800001946622868FF30E7
S3151C000F508130C169491CC16170BD10B5294CA1689D
S3151C000F600B68E2680968521E934204D909040143BE
S3151C000F702068016210BDCA0061688850A0680068BC
S3151C000F80C00041180120091DFFF7B5FDA0680168C6
S3151C000F90491C016010BD30B51A4C22681346FF323D
S3151C000FA081321569082D04D311690904014319629C
S3151C000FB030BD1269D200D218FF3201321065FF22F1
S3151C000FC0206891321258D2001018FF30013041654A
S3151C000FD02068FF3081300169491C016130BD10B5A4
S3151C000FE0084C2268D369090480B21B070143980E7A
S3151C000FF08018FF30013001612068C169491CC1613C
S3151C00100010BD0000E813000043415254474F4C45A5
S3151C001010F8B5FA4D0126FA4C76021421284600F042
S3151C00102052FD2068F749884252D16168F6488142D0
S3151C0010304ED1A06800284BD1E068002848D1206911
S3151C0010400421F24A904204D1F1486169A26906C0A2
S3151C001050072188002058EF4FEF4BF04AB84210D1B9
S3151C001060491C880000196860A868401CA860C91C37
S3151C001070880027589F4204D02058904201D0B14284
S3151C001080F2DB8800205898420DD1491C88000019B3
S3151C001090E8602869401C2861C91C880020589042B9
S3151C0010A001D0B142F5DB761EB14208DC880023581C
S3151C0010B0934204D100194268D348824208D00020CA
S3151C0010C028606860E860B520FFF789FFB520F8BD89
S3151C0010D00020F8BDF8B50020CD4C00900834E0691E
S3151C0010E0006800908007FAD5F420FFF736FFCC4A3B
S3151C0010F0E0690068114600908143F9D1FB20FFF797
S3151C0011002CFFC84D69462846FFF782FD010002D018
S3151C001110FF2404346AE000993C24214328460091AC
S3151C001120FFF770FD010002D0FF2406345EE0BE4EC0
S3151C00113069463046FFF76CFD010002D0FF240934D6
S3151C00114054E0BA48009901401120014330460091F1
S3151C001150FFF758FD010002D0FF240C3446E011268F
S3151C001160B60169463046FFF753FD010002D0FF2445
S3151C0011700F343BE00098010909010B20014330465E
S3151C0011800091FFF73FFD010002D0FF2412342DE031
S3151C0011904721802689016120770180010091FFF794
S3151C0011A031FD010002D0FF241A341FE00099612092
S3151C0011B0B143B94380010091FFF724FD010002D021
S3151C0011C0FF241D3412E069462846FFF721FD010065
S3151C0011D002D0FF24253409E000992846A14300913A
S3151C0011E0FFF710FD010006D0FF2427342046FFF729
S3151C0011F0F6FE2046F8BD0020F8BDF8B5002000908C
S3151C001200834801680805040F082C02D8601E044296
S3151C00121003D02146FF24613445E07D4A083210691B
S3151C001220002C13D103685B0C9B0703D00268520386
S3151C001230940F0BE003687B4C1B041B0D203CA34244
S3151C00124003D192681268012A08D0042409060D0FDE
S3151C001250032D05D9FF242946713424E00224F5E721
S3151C001260002D08D10168C90C890703D00068C0028B
S3151C001270850F00E003256C4E69463046FFF7C8FC17
S3151C001280010002D0FF247B340DE000982101400AA6
S3151C00129040022943014330460091FFF7B3FC01008D
S3151C0012A006D0FF247E342046FFF799FE2046F8BD63
S3151C0012B00020F8BDF0B59C465D4B91B01C680746F6
S3151C0012C06408169E179864001C600B04BC330093BC
S3151C0012D0AF23090C9B04C918029203250191012214
S3151C0012E03346002101E05B08491C012BFBD10E2370
S3151C0012F09A434907090F1143F023421E99431307CA
S3151C0013001B0F1C010C430721090201228C435202AC
S3151C00131014438C4351018C430C433146002201E09B
S3151C0013204908521C0129FBD10721C9038C435107CB
S3151C0013308A0B22430F2189048A43990411430722ED
S3151C001340920591430122D20511430722520691436D
S3151C0013500A04FF32AB006C46BD32E250354A090C1A
S3151C00136089186D1CAA00A15031464143604640189D
S3151C001370401E6D1C00F064FB000211214904203044
S3151C0013800843A90060506D1CA9002B4860506D1CB9
S3151C001390A9002A4860506D1C3420A90060507807AB
S3151C0013A0400DA03001043802014325489922816072
S3151C0013B0694652048918C1600021416021490868A8
S3151C0013C00007000FFBD111B0F0BDFEB5064600208C
S3151C0013D06946088169201C4601214002FFF740FC32
S3151C0013E0010002D08D24A400A8E009211648FFF7AD
S3151C0013F037FC01002CD0154CA0E00000EC75000059
S3151C0014000076000045494350534752414C525443C1
S3151C001410F81300004C45525054534F50444E45004F
S3151C001420BE03000068080000DC04000000F3FFFF98
S3151C001430000811180000181804083C023806181871
S3151C001440000D02180001021801D20000350200002E
S3151C0014500121F948FFF704FC010001D0F74C6DE0AF
S3151C001460F74D286900680004000F082815D0286865
S3151C0014700168012211430160992040043118102390
S3151C001480082001930090EF4A23460020FFF712FF25
S3151C00149001000CD0E94C153450E0224631460020A0
S3151C0014A0FFF741FC010041D0E44CE41D46E0E64C4C
S3151C0014B0686821460268D20602D4491E0029F9DC56
S3151C0014C000290AD0DC4E01211D363046FFF7C8FB29
S3151C0014D0010005D01324640130E0D84C23342DE0E0
S3151C0014E0D54F1E3702A93846FFF7E5FB010002D08F
S3151C0014F09924A40022E068460089000602D4641ED2
S3151C001500002CEFDC002C08D000213046FFF7A8FB8E
S3151C001510010006D0C94C3B3410E02146C74C383478
S3151C0015200CE0286801684908490001600021C2488E
S3151C001530FFF796FB010006D00524E4012046FFF7C1
S3151C0015404EFD2046FEBD0020FEBD90B0002005903D
S3151C0015503F204002FFF7AFFCFFF7BDFCB748C43085
S3151C001560FFF7FBFC0320FFF7CFFCFFF751FD01271C
S3151C001570B34C0546002803D0B04E0146C93623E0BD
S3151C001580AF4EAE48083ECC303168FFF704FD2069EB
S3151C0015900068AE490004000D884208D100F0CFF85F
S3151C0015A0010004D0D120FFF71AFDD12507E03078C1
S3151C0015B0C00703D1A06A0168394301600025002DCC
S3151C0015C008D0C1262946B6003046FFF708FD280478
S3151C0015D0801924E09948D030FFF7BFFC05A8FFF717
S3151C0015E003FB07A8FFF704FB099881B20598FFF7D0
S3151C0015F003FC0A990546A94203D0904E0146D936EA
S3151C001600E2E730784008C0070CD1E0690068800723
S3151C001610C10F07D08948DF30FFF7E1FC8C48E16831
S3151C001620086065E08548E330FFF797FCFFF765FC2B
S3151C0016308248E830FFF791FCFFF74CFD050003D00C
S3151C0016407E4E0146EB36BFE77C48EC30FFF785FC47
S3151C00165000F03BF9050003D0784E0146EF36B3E7A0
S3151C0016607648F130FFF779FC00F0D1F8050003D07D
S3151C001670724E0146F436A7E7CB208000FFF76DFCBF
S3151C00168014220AA9684600F005FA07A90EC905988E
S3151C001690FFF79BFE050003D0684E0146F93693E71B
S3151C0016A06648FB30FFF759FC00F044F9050003D0EF
S3151C0016B0CD260146B60087E76648FFF74EFCFFF7C6
S3151C0016C09CFD010005D0FF25C9352846FFF787FC80
S3151C0016D002E000F071F80546002D03D05D4E294648
S3151C0016E0F61C71E7E06807605A480830FFF735FCBE
S3151C0016F0FFF7F7FBE0680068012801D0FFF7F7FB4E
S3151C0017000025554E10E03146284600F0AFF96D1CF9
S3151C001710002911D000BF00BF00BF00BF00BF00BF23
S3151C00172000BF00BF00BF00BFE06900684008C007DB
S3151C001730E9D1FFF7EFFB7BE7FFF7F3FBF4E770B5A7
S3151C00174005220021120719203F4B4005C2600322C7
S3151C00175012030261424A414DD56042481061102075
S3151C0017605061012414600820C04302E0491C9942C0
S3151C00177021DA1668B607F9D5D5603B491161FF21F8
S3151C00178051611460002102E0491C994213DA156864
S3151C001790AD07F9D53549D16035491161C721890095
S3151C0017A051611460002102E0491C994203DA146855
S3151C0017B0A407F9D5002070BD70B52E4E3569F468A6
S3151C0017C01FE0206801280AD0002814D03069FF24A5
S3151C0017D0411B98342046FFF702FC204670BD208929
S3151C0017E081B26068FFF73CFA002808D03069FF24F4
S3151C0017F0411B9234EEE7A1686068FFF703FA0C34CC
S3151C0018006D1E002C01D0002DDBDC002070BD10B538
S3151C0018101320A0210002FFF723FA010002D0FF24A7
S3151C001820AD344AE04521C9011348FFF719FA0100F6
S3151C00183024D0FF24B03440E00CD200003602000055
S3151C001840001400000000041910270000870B00007C
S3151C0018501503010036030000A0860100000238347F
S3151C001860000021030001000200030002000258349C
S3151C00187000140202EC750000B0D000000921684873
S3151C001880FFF7EEF9010002D0FF24B13415E06548DC
S3151C00189001690968644A0904090D914212D18068DC
S3151C0018A0006811280ED15E48012189026F30FFF7AE
S3151C0018B0D7F9010006D0FF24B8342046FFF78FFB6A
S3151C0018C0204610BD00F080F810BD70B5554C206840
S3151C0018D0016804252943016000215448FFF7C0F91B
S3151C0018E0010001D0524C16E05148401CFFF735FB55
S3151C0018F04E4800210B38FFF7B3F9010002D0A5248E
S3151C001900A40008E0692000214002FFF7A9F90100A4
S3151C00191006D0474CE41C2046FFF761FB204670BDF1
S3151C0019207D20C000FFF787FA20680168A943016083
S3151C001930002070BD38B50020694608806920032147
S3151C0019404002FFF78DF9010002D0394C1C3436E0F9
S3151C001950364838491930FFF783F9010002D0344C58
S3151C00196023342CE0314D002124352846FFF778F925
S3151C001970010002D05724E40021E02C480B210B382F
S3151C001980FFF76EF9010002D0294C2C3417E02A4CC3
S3151C00199069462846FFF78FF9010002D0244C3434DF
S3151C0019A00DE068460088002802D1641E002CEFDC7E
S3151C0019B0002C01D0002038BD21461D4C3B3420464E
S3151C0019C0FFF70DFB204638BD70B51C4EB568746814
S3151C0019D01FE0206801280AD0002814D0B068FF2414
S3151C0019E0411B3F342046FFF7FAFA204670BD20897A
S3151C0019F081B26068FFF734F9002808D0B068FF246C
S3151C001A00411B3A34EEE7A1686068FFF7FBF80C341B
S3151C001A106D1E002C01D0002DDBDC002070BD0000EB
S3151C001A20B1D0000000140000790800000CD20000A0
S3151C001A30920200000183000010270000EC750000D4
S3151C001A4030B50B46014600202022012409E00D4634
S3151C001A50D5409D4205D31D469540491B25469540BC
S3151C001A6040191546521E002DF1DC30BD70B5002400
S3151C001A702546002801DA01244042002901DA012505
S3151C001A804942FFF7DDFFAC4200D04042002C00D09B
S3151C001A90494270BD03460B439B0703D009E008C9A6
S3151C001AA0121F08C0042AFAD203E00B780370401CEC
S3151C001AB0491C521EF9D27047D2B201E00270401C7A
S3151C001AC0491EFBD270470022F6E710B513460A469C
S3151C001AD004461946FFF7F0FF204610BD064C0125AB
S3151C001AE0064E05E0E36807CC2B430C3C98471034A4
S3151C001AF0B442F7D3FEF7F8FECC130000CC1300005B
S3151C001B0030B47446641E2578641CAB4200D21D4654
S3151C001B10635D5B00E31830BC1847000010B5002855
S3151C001B2023D0124B0022001F196803E0814203D800
S3151C001B300A4649680029F9D1002A0AD01368841A72
S3151C001B409C4204D1006818181060104602E05060D0
S3151C001B5000E01860002907D002680B1A934203D1D3
S3151C001B600B68D21802604968416010BD3014000031
S3151C001B70F0B50B30C108C900144F0026144A0FE0FB
S3151C001B8003688B420BD38B4205D95C1A43184568F4
S3151C001B9030C3083B00E04368136002C004E0021D2A
S3151C001BA010680028ECD13046002803D1386800287C
S3151C001BB001D00020F0BD064A06481060064A121ADB
S3151C001BC0D208D20044C001203860D7E73414000084
S3151C001BD030140000485B00004467000021104220BE
S3151C001BE08440088131126224C44888910000000098
S3151C001BF0000000000000000000000000A0EB8200B6
S3151C001C0000000000000000000000000000000000B2
S3151C001C1000000000000000000000000000000000A2
S3151C001C2008641018006510180440011804100218E6
S3151C001C30C04F01184880000068800000142F01184E
S3151C001C40302F0118382F0118542F011800000000DE
S3151C001C500000000000000000000000000000000062
S3151C001C600000000000000000000000000000000052
S3151C001C700000000000000000000000000000000042
S3151C001C800000000000000000000000000000000032
S3151C002000494543500700020040430000412400009C
S3151C002010443030305F30340000000000221119209B
S3151C002020F00B002043020000813C00008F3C0000A6
S3151C002030000000000000000000000000000000007E
S3151C0020400000000000000000000000009D3C000095
S3151C002050000000000000000029020000AB3C00004C
S3151C002060B93C0000C73C0000053D0000053D0000D2
S3151C002070D53C0000DB3C0000E13C0000E73C0000D6
S3151C002080ED3C0000F33C0000F93C0000FF3C000066
S3151C002090053D0000053D0000053D0000053D000016
S3151C0020A0053D0000053D0000053D0000053D000006
S3151C0020B0053D0000053D0000053D0000053D0000F6
S3151C0020C0053D0000053D0000053D0000053D0000E6
S3151C0020D0053D0000053D0000053D0000053D0000D6
S3151C0020E000000000000000000000000000000000CE
S3151C0020F000000000000000000000000000000000BE
S3151C00210000000000000000000000000000000000AD
S3151C002110000000000000000000000000000000009D
S3151C002120494E46380400D00000030001044000015B
S3151C0021300001002000040020000000000005002013
S3151C002140080000008000000040040020000A002057
S3151C00215000000000000000000000000060040020D9
S3151C002160000000000000000000000000000000004D
S3151C002170000000000000000000000000000000003D
S3151C002180010000000000000000000000C00000006C
S3151C00219000010020000000000000000000000000FC
S3151C0021A000F002F800F03EF80CA030C808382418DD
S3151C0021B02D18A246671EAB4654465D46AC4201D15D
S3151C0021C000F030F87E460F3E0FCCB6460126334251
S3151C0021D000D0FB1AA246AB463343184750410000B9
S3151C0021E070410000103A02D378C878C1FAD8520759
S3151C0021F001D330C830C101D504680C60704700009B
S3151C0022000023002400250026103A01D378C1FBD8F0
S3151C002210520700D330C100D50B6070471FB51FBDD8
S3151C00222010B510BD04F000F81146FFF7F7FF00F0DB
S3151C00223021F804F018F803B4FFF7F2FF03BC00F012
S3151C00224017F8FEE7FEE7FEE7FEE7FEE7FEE7FEE71A
S3151C002250FEE7FEE7FEE7FEE7FEE7FEE7FEE7FEE734
S3151C002260FEE710B5FFF79CFF10BD0A4603467047F4
S3151C002270FEE77047FFF7FDFF03F0A4FD3E4C00266A
S3151C0022802660052109077018206003F0DBFC03F0AB
S3151C00229070FC206839494018808E271F000B387047
S3151C0022A002F0A3FC03F0C0FE03252D07A88AAE820C
S3151C0022B0334A9088010B09030007000D0143907BEC
S3151C0022C0014320682F4A80180184304B2E4A1A601D
S3151C0022D02068E912884320607E701E4633E0306811
S3151C0022E0EC21095CC02251438030418302F00EFD73
S3151C0022F0A88A0120C043A88221680120214A4032B5
S3151C0023008918088002F05BFE02F0D8FEA88A072016
S3151C002310C043A882216804201D4A89188881306818
S3151C0023200322E030407B5204010217480818306033
S3151C002330E030007B216880079143400B01432160FC
S3151C0023407878401C7870787839788842C7D3032708
S3151C0023500D4D7F0400F01EF83068E030407B000213
S3151C00236040193060E030007B21688007B943400B80
S3151C00237001432160EEE7000084000020C0A101009B
S3151C0023800004002040A4010000050020900000204D
S3151C00239040A30100FEB5F74D00262868E030007BFF
S3151C0023A0002817D10F273F0303F0EEFBF24C000C5D
S3151C0023B02168090C401AB8420CDDF048FF218170D7
S3151C0023C0F02141700670032003F088FD2068390453
S3151C0023D0401820602968EA4CE03108794871226867
S3151C0023E00D2040031018808FC20A0A710106C90FFE
S3151C0023F003D18006800E02F050F82968487C00281C
S3151C00240009D001282ED002282AD003282BD0042834
S3151C0024102CD005282DD00020AC225054E0318878D1
S3151C002420226840068C46C017D6495118898F401C15
S3151C0024304907C917491CD44D084275D00022A88AE1
S3151C002440D248A882D0072168000ED14BC918001D9E
S3151C00245088850020002110280ED21F231B1A0DE090
S3151C00246000F0BEFBFEBD00F030FCFEBD01F079FDA8
S3151C002470FEBD00F01FFFFEBD0346103BAE8ADBB25D
S3151C002480002A07D0C14E6536AE822768C04EBE19DB
S3151C002490F38506E0BF4EAE8227681E02BC4BFB18B6
S3151C0024A09E85B84E00232768BF193F8CFF05FF0F7A
S3151C0024B001D0491CC9B25B1CDBB20A2BF3D3002822
S3151C0024C004D005291DD81F2802D016E0052914D9C9
S3151C0024D0A88A002A08D0AD486530A8822368102037
S3151C0024E0AB495918C8850CE0AA48A8820120236864
S3151C0024F00003A7495918888503E0401CC0B2202850
S3151C002500A8D3521CD2B2022A99D3A88A0420C0434B
S3151C002510A882226800209E495118888560468078CA
S3151C0025204021084361468870216896480818008C2B
S3151C002530994E8004800F02287BD06046807E00283E
S3151C00254052D0236803215803800F00908948490400
S3151C002550924A8B4302600027236034E0A88A8B488A
S3151C0025608330A882226800200D2149035118488413
S3151C00257003F03BFB216883480818808F800601D531
S3151C0025800D2000E0864803F00CFB7A490020096800
S3151C002590E031487602F061FE76480021006803228D
S3151C0025A0E0308176407B520401027C480818714950
S3151C0025B00860E030007B216880079143400B014393
S3151C0025C07F1CFFB22160774800788742C6D30098EB
S3151C0025D072490202521867490A6003225204216892
S3151C0025E04004914301432160216869480818C08A48
S3151C0025F001076048090F0068A0304173012101736F
S3151C002600F079002800D036E7A88A6748A8820322FA
S3151C002610236852025E4840301B181A84AA8A5B4AF9
S3151C0026207532AA8223680F2218184284F171FEBDE6
S3151C002630FFE7F079012813D1A88A5B48A8820121FB
S3151C002640226849025248403012181184A98A4F49FF
S3151C0026507531A98222680521101841840020F07169
S3151C00266060464079434F00286046007902D0002816
S3151C00267005D008E0002806D002212F2001E0022107
S3151C002680302003F0B9FC386802260146E030027996
S3151C002690130003F0F5FD09070F0606060622069031
S3151C0026A00600C4E70022C2720120A031087302F0A2
S3151C0026B04AFDBCE70026A0310E730221312003F02F
S3151C0026C09BFC02F031FA02F0BBFEA88A3748A882AE
S3151C0026D021682C4808184680A9E7C27A930715D4A6
S3151C0026E032433240C272027BA03109791201511861
S3151C0026F0407E09061030090CC0B20143019100232B
S3151C002700022200963221012003F000FC3868E030DA
S3151C002710407E052806D000284AD0022887D103F01F
S3151C0027204EF984E7A88A0820C043A882216808209D
S3151C002730174A803A89180880216812480818808F21
S3151C002740C00601D5172000E01E2000F0FFF910205E
S3151C00275002F041FDA88A4020C043A882226840207E
S3151C0027600D2149035118088439680020E031487648
S3151C0027705DE7000090000020880000208C000020EF
S3151C0027808400002080A40100000000307BFF0000B4
S3151C00279000A10100FFE0000020040020000500202D
S3151C0027A0A086010080000020FFF10000FF7F0000D2
S3151C0027B002F0ACFF3BE7C27A530716D404231A4334
S3151C0027C01A40C272027BA031097912015118407E4F
S3151C0027D009061030090CC0B20143019100230222E4
S3151C0027E000963321012003F091FB38680146E03145
S3151C0027F04A7E002A15D0012A2ED0032A7AD0042A12
S3151C0028008FD10121A0300173216870480918C9892C
S3151C002810C90770D021680918C9898907C90F6BD0E7
S3151C002820C5E0AA8A0222D243AA8222680D235B0330
S3151C002830D2185684AA8A664AAA8224680022E318F9
S3151C0028405A8401224A76097BA030007909010818AE
S3151C0028500006000C212196E0236822465B4C1B19BE
S3151C002860DB89DB071ED04E76A88A59481F38A882FA
S3151C002870126820200D2149035118088403F0D0F951
S3151C002880002801D103F0B1F9386801460246E0324E
S3151C002890107BA0310979000140180006010C507EFE
S3151C0028A030304CE04B4A12681219D2899207D20F6B
S3151C0028B023D00122A030027304204876A88A4648F9
S3151C0028C0A8824448910300680019418003F0A8F9C6
S3151C0028D0002801D103F089F9386801460246E03226
S3151C0028E0107BA0310979000140180006010C507EAE
S3151C0028F0403024E033E04AE04CE003F091F93549DE
S3151C0029000A681219928F9207D217521C104221D0B4
S3151C0029103A681046E0304676AB8A2D4B1F3BAB829D
S3151C0029200C6820230D21490361180B84017BA032FE
S3151C0029301279090189180906407E090C5030C0B26B
S3151C002940014300960191002302223321012003F04A
S3151C002950DDFA6CE639680120A031087367E60122AE
S3151C002960A0300273AA8A1D4AAA822468531C174ADD
S3151C002970A218538004224A76097B0079090108189B
S3151C0029800006000C6421084300960190DBE7A98A27
S3151C002990124901E0A98A1049A9822268002110184F
S3151C0029A0418003F013F939680120E0314876386814
S3151C0029B001460246E032107BA0310979000140181D
S3151C0029C00006010C507E7030B9E7000080A401009F
S3151C0029D0FEFF000084000020FFBF0000FF7F0000F8
S3151C0029E0002816D0012815D0002140004008491C9B
S3151C0029F0400049B20028FADAC00DE0221040CA177E
S3151C002A00D20E521852095201891A1F22511A401805
S3151C002A10C0B27047E0207047F0B503242407A18A92
S3151C002A20FC49A182002801DD012100E00021FA4AAF
S3151C002A308902FA4E891832680D277F03D219118133
S3151C002A40012300215B02454207E0A28AF44AA282C6
S3151C002A503268D2191381491C49B2002801DB02468F
S3151C002A6000E02A468A42F0DCF0BDF0B5ED48AD2107
S3151C002A7000680123095C0324E94A5B022407E74D2D
S3151C002A8000291CD07C21415EFF2608461130E64FEA
S3151C002A9000281AD00F2924D0A08AA28229680D20CA
S3151C002AA0400309180B81A18AA28229680818038190
S3151C002AB0DC4800684030818F491C8187F0BDA08AA4
S3151C002AC0A28229680D204003F0E73E20C043FFF791
S3151C002AD0A3FF0120FFF7A0FFA08AA6820120800287
S3151C002AE00AE03E20C043FFF797FF0120FFF794FF43
S3151C002AF0A08AA6820120C0022968C9198884D7E742
S3151C002B0030B503200007818AC84B8382C349002441
S3151C002B100D68C54AAD182C84848A83820C685B1C9C
S3151C002B20A2181384828A8022D2438282096880205A
S3151C002B300D2252038918088430BDB8480068BA496A
S3151C002B404018808E800480164042704710B50321C1
S3151C002B5009078A8A8A138A82404280060D22C00D82
S3151C002B6052028318AD4A1468AF482418E3828B8A34
S3151C002B70AE4B8B821268591C1018C18210BDA94815
S3151C002B800068E0300079062801D00020704701203B
S3151C002B90704770B5A34800210468227FA37D9A4222
S3151C002BA001D3D01A02E0BF20C01A8018C5B27C20FF
S3151C002BB0005B632801D10121C903BF2A01D3002070
S3151C002BC000E0501CC0B2834202D10126B603314339
S3151C002BD09A4202D10122520311432943A18270BD9C
S3151C002BE070B5FFF7D6FF0546FFF7C9FF002863D06F
S3151C002BF08C4C2168087DBB285ED27C22505E6328E3
S3151C002C005AD0A0314E7B8549874A894B002E15D058
S3151C002C1010301F2808681CD886182820305E0968C2
S3151C002C2080028918498DC9B20843FFF7D9FE21686D
S3151C002C309A22525A097F511858541CE00868861863
S3151C002C403020305E096880028918498E8905890DF5
S3151C002C50EAE786182C20305E096880028918C98D1F
S3151C002C60C9B20843FFF7BCFE014620689A22125AD5
S3151C002C70007F1018195420680577FFF75EFF1F2187
S3151C002C80C8421DDC20689A22125A047F00211219A0
S3151C002C909954017FBF2901D3002100E0491C01770B
S3151C002CA040303C21415E1F2907DAFFF7DEFE1F205C
S3151C002CB0FFF74CFFFFF724FF70BD6321818770BDB2
S3151C002CC0FFF73BFF401E40B2F2E7F0B5FFF761FF8E
S3151C002CD00746FFF754FF002870D0524E3068017D1E
S3151C002CE0BB296BD27C22115E632967D0A030407B46
S3151C002CF04A4C4D4D4E4B00280BD0103120681F29D5
S3151C002D0012D841192820085E216880024919498D6C
S3151C002D1011E0206841193020085E2168800249199B
S3151C002D20498E8905890D07E041192C20085E21680A
S3151C002D3080024919C98DC9B20843FFF751FE0146E5
S3151C002D4030689A22125A007F1018195430687C2158
S3151C002D5007770A5E1F2A02DAFFF787FE2CE09A2203
S3151C002D60125A0021D2199954017FBF2901D300217F
S3151C002D7000E0491C0177FFF7E0FE1E27FF43B8421F
S3151C002D8025DD3068A030407B002818D00420FFF7D2
S3151C002D9043FE03200007818AFF21818201202168CE
S3151C002DA0400249198884306840308787FFF7C5FE82
S3151C002DB0401E40B2FFF7CAFEFFF7A2FEF0BD3E2042
S3151C002DC0C043FFF729FE0120FFF726FEEBE730681C
S3151C002DD0632140308187F0BD10B502F0D5FE114944
S3151C002DE0030C09680A468032D0819381403148879A
S3151C002DF00B8710BD10B5094A11680E4BC918898E70
S3151C002E00CC0B047008041168C918C98E084340000D
S3151C002E10400810BD808B00000120000084000020AB
S3151C002E20FFFD00009000002040A00100FF7F000075
S3151C002E300001002080A1010010B503200007818A33
S3151C002E40FF2104318182FC4A00211468FB4BE418E3
S3151C002E502184848A81821468E4186184848A81822C
S3151C002E601468E418A184848A81821068C018C184FD
S3151C002E70CFE770B50446FFF7DFFF03210907888AF1
S3151C002E80EF488882EC4AE3061568DB0E0D267603AE
S3151C002E90AD196B858B8AEB4B8B8216680D14E74B31
S3151C002EA0F61835848D8AFF258D8201251668AD029C
S3151C002EB0F618B5848D8A0325ED438D821668032585
S3151C002EC0F318DD848B8A88821068DF494018C48514
S3151C002ED070BDF0B51F20FFF7CCFF03200007818AC9
S3151C002EE03021C9438182D44910230C680D22520318
S3151C002EF0A4186384838AD54B838201230C689B02A6
S3151C002F00D34D64196384838A2023DB4383820C6834
S3151C002F102023A2181384828ACE4D85825E020B68FA
S3151C002F20C94A403A9B189E81838ACB4F87820C687C
S3151C002F307300A418A381848A85820C68A418A684AD
S3151C002F40848A87820C68A2189384828A0822D243B8
S3151C002F50828209680820B94A403289180880F0BD67
S3151C002F60F8B5BE4F7C223868115E0C124DB229464C
S3151C002F701F313F2904D21F2C02DC1F21CC4209DA47
S3151C002F800122E1B2D20389188182C030C47605774A
S3151C002F900120F8BDA84E31680D2252038918898A72
S3151C002FA0A030417231688918898A091281722846B3
S3151C002FB0FFF7CCFDFFF78DFF3868AD21095C0029B2
S3151C002FC00ED0032110220907D4420CDA62007C239E
S3151C002FD040321A528A8AFF228A82012252020DE04C
S3151C002FE07C210C5212E00F2C0DDD62007C233C3A36
S3151C002FF01A528A8AFF228A820122D20233688F4998
S3151C00300059188A8402E062007C210A524030808F63
S3151C00301040B2FFF701FD6846FFF7ECFEFFF7DCFE4A
S3151C003020FFF76EFD386801218182C030C4760577B2
S3151C0030300020F8BDF0B5804D29680D267603891948
S3151C003040898A032409120818400040B2411024073B
S3151C003050A08A7C480C30A08201202A684003921961
S3151C00306010810A067948A28AA08205D52A68002002
S3151C00307092191081494204E001202A6880029219A3
S3151C0030801081A08A7F20C043A0822A680120921941
S3151C003090108100200122724F520206E0A38AA782E9
S3151C0030A02B689B191A81401C40B28842F6DBF0BD86
S3151C0030B0F0B5614D29680D2676038919898A032482
S3151C0030C00818400040B240102407A18A5D490C3103
S3151C0030D0A18201212A688903921911810306002104
S3151C0030E0002B5A4AA38AA28204DA2A6892191181F1
S3151C0030F0404204E001222B6892029B191A81574A0E
S3151C003100574F1268A032137A01225202002B13D099
S3151C003110A18A7F21C943A1822B6801219B19198190
S3151C003120002106E0A38AA7822B689B191A81491CD9
S3151C00313049B28142F6DBF0BDA38A4A4BA382400604
S3151C0031400123400EDB02C0182B689B191881A08A2C
S3151C003150A782286880190281A08A42487F30A082F3
S3151C003160286880190181F0BD0F304010704710B5DA
S3151C003170032109078A8A8A138A82C0051122C00D77
S3151C003180520283182C4A14682C482418E3828B8A12
S3151C003190314B8B821268591C1018C18239E610B546
S3151C0031A0032109078A8A8A138A82C0050922C00D4F
S3151C0031B092028318204A146820482418E3828B8ABA
S3151C0031C0254B8B821268591C1018C18221E610B53A
S3151C0031D0224C2068C27D01465307A031002B14DA0D
S3151C0031E092070DD4DB2141560F314810FFF7D7FF4C
S3151C0031F02168DC2008560F304010FFF7B8FF08E0A6
S3151C00320009200856FFF754FF03E00A200856FFF76B
S3151C00321011FF03200007818A0821C94381820649C0
S3151C00322008200968054A4032891808802168B5209B
S3151C0032300856FFF78BFCECE58400002040A001003B
S3151C003240E0FF0000F38F000000A50100FFFB00005B
S3151C00325080A10100FFBF0000FF7F0000900000203E
S3151C003260FFFD000080F7000070B5064602F08CFCDE
S3151C003270F74D04462868783002F017FF01461020E7
S3151C003280C141601A30602D6828468C3002F00DFF53
S3151C00329001461020C141EF486A7C611A407C052A10
S3151C0032A004D04004884203D2012070BDC001F9E756
S3151C0032B0002070BDF8B5E6480068808A000418D462
S3151C0032C003263607B08AE44FB782E44C20212268D5
S3151C0032D00D204003101841846846FFF7C5FF0025E2
S3151C0032E0012807D0B08AB78221680D204003081830
S3151C0032F04584F8BDFFF76BFFD54801210068417472
S3151C003300AD21095C00290ED0DB221156D44A10319E
S3151C0033101F2921680AD889182823CB5E990223689D
S3151C0033209A18528D09E0058345830BE08B182C21D6
S3151C003330595E236889029A18D28DD2B211430A0C9F
S3151C00334002834183C7498182F8BDF8B5C04AC64D80
S3151C0033501168C24EE031C87EC44CC00707D1A88A8A
S3151C003360C348A88201203368C0021B191881002794
S3151C00337038464F77FFF7EAFBB5480068E030C07E59
S3151C0033804006400F062801D101F067FF3168B74897
S3151C0033900818848BA88AB0486038A88231683846D9
S3151C0033A0AF4FC919C884FFF747FD282C41D0502CB4
S3151C0033B041D0782C41D0A02C41D0C82C41D0F02C27
S3151C0033C041D00020A98A8321A98231680002C9192B
S3151C0033D0C884A88AA04A603AAA8230688021C0198B
S3151C0033E0C184A88AA348A882A3483368DB19188419
S3151C0033F0A88AFF20A8823368C800DB199884A88A8B
S3151C003400AA823268994812181184A98A1F21C943B5
S3151C003410A98232680C21101841858D48FB21006851
S3151C0034200622095C0907490F511A8C408030848397
S3151C003430F8BD0120C6E70320C4E70520C2E7072024
S3151C003440C0E70920BEE70B20BCE710B58049002465
S3151C0034500968E4430A46E032507776235C5202231D
S3151C00346013770022A0314A74FFF770FBFFF748FB65
S3151C003470CFE4774800210068017781758182FB21A2
S3151C003480095C8030CA09818B002A00D04900C1839F
S3151C0034900020DAE710B56E4900240968E4430A46A1
S3151C0034A0E032507776235C52022313770022A03138
S3151C0034B04A74FFF74BFBFFF723FBAAE410B514462F
S3151C0034C0411A09D040001A1B504302F009FE401C49
S3151C0034D04010201800B29CE4D018C10F08184010E8
S3151C0034E0F8E7F1B55A4EFB2130680127095C002527
S3151C0034F08C4609074A0F394691404CB2017F827DA2
S3151C00350082B0914201D38B1A02E0BF239B1A5B182F
S3151C0035109BB28382BF2901D3002600E04E1CF6B263
S3151C0035200096B24203D10126B603334383829142ED
S3151C00353004D1818A01225203114381821F21029ADE
S3151C003540C9434A4E012A23D18030C08B00281FD183
S3151C0035506046C0091CD06046C00700D02021084622
S3151C003560FFF75AFA4048818A444981823848012229
S3151C00357000689202E030C17EC907C91789028A1801
S3151C0035803649096889190A81C17E4906490EC176E0
S3151C0035903248016835480818808F2D4BC10A1868B7
S3151C0035A09E260246E0321171365A002E68D0062934
S3151C0035B066D1017DBB2963D228490B682849591855
S3151C0035C030268E5F117F04290FD81D23D356062063
S3151C0035D0002E03DB411A3846884003E0411A384660
S3151C0035E088404042181850775CE00023DB430529CD
S3151C0035F00BD0002E11DD76210B5E002B1FDB1D214F
S3151C00360051561F2917DA491C13E01D201056002E8F
S3151C00361000DB0123C018507740E0002E0FDA76231A
S3151C003620195E00292DDC1D2151561F23D94202DDAE
S3151C003630491E517732E0A03047744D012EE01D2102
S3151C00364051564B011A4620327625405F31461EE004
S3151C0036509000002000040020DFFF000084000020F2
S3151C00366040A0010001EC00000000003000A0010099
S3151C003670FFF70000F30F00000CB00000FFFB00007A
S3151C00368021E01D20105642011346203B3046FFF711
S3151C00369015FF0546FE480068A0304774FC480068C4
S3151C0036A04030C686FA4800680146E0310A7F521C43
S3151C0036B00A77B122125C012A06D01D200856FFF794
S3151C0036C045FAFFF71DFAFEBD02468032538B067F74
S3151C0036D09E19F04B9D55009B0377BF2B01D30026EB
S3151C0036E000E05E1CB446568B2D04F618E94B2D0ED5
S3151C0036F09D5566460677D08B0023401E80B2D0832C
S3151C0037004B77029DE44B012D1AD0CD7EED090ED0D0
S3151C003710928B90420BD103200007828A7C22D243D3
S3151C0037208282DE4804220568DD482818C2840325E7
S3151C0037302D07A88ADB48A882002C1DDD01201CE071
S3151C00374003220D25002012076D030126760207E0D1
S3151C003750948A9382D14C246864192681401CC0B279
S3151C003760CC7E6407A70F0124BC408442F0DC1D20DC
S3151C0037700856FFF78FFEFEBD0020CB4A8002104381
S3151C003780C64A16680D277F03F619308101220020D0
S3151C0037905202664208E0AB8ABF4BAB82BF4B1B682A
S3151C0037A0DB191A81401CC0B2002C01DB234600E049
S3151C0037B033468342EFDC1D200856FFF746FEFEBD4E
S3151C0037C0F0B5B34E0025306885758582FFF734FB4E
S3151C0037D003242407A08A0320A082B04F3868B0496E
S3151C0037E04018C584A08A0820C043A08239680820D6
S3151C0037F0AB4A4032891808803168B5200856FFF755
S3151C003800A5F9A08AA748A08239680D20400309188B
S3151C0038100D81A18AA549A182396808180581F0BDC8
S3151C00382000B59B4900200968E0314877FFF78EF9FF
S3151C00383000BD10B5964C00212068017781758182E8
S3151C0038400221E0300177C07EC00701D0202001E0B4
S3151C0038501F20C043FFF7E0F803200007818A944924
S3151C0038608182206801230246E030C17E9B02C90783
S3151C003870C9178902C918894B1B680D2464031B19B7
S3151C0038801981C17E80231943C1764807810F4020C8
S3151C003890C8408032D0830020FFF7FCFD7EE4F0B5E3
S3151C0038A01F20FFF753F97D4C20680D256D03401929
S3151C0038B0828A774F39680846A030427222685219AC
S3151C0038C0928A4031121282721E22D2438A87407B10
S3151C0038D0002849D00220FFF79FF8386800267E2171
S3151C0038E00E52067786751F20FFF7C3FA3968AD207E
S3151C0038F0425C03200007002A08D0828AFF228282AB
S3151C003900012223685202664FDB199A848E82818AB1
S3151C0039102021C94381822268202152191184818A5F
S3151C003920644F878201252268AD036349521895812D
S3151C003930828A624E868223686A005B189A81838A11
S3151C003940878223685B189D84838A8682236859181C
S3151C0039508A84818A0821C943818221680820504AA9
S3151C003960403289180880F0BD1F20C043FFF754F869
S3151C0039700120B0E770B50446FFF75EFA032109077C
S3151C003980888A4F4B8B82454AE0061568C00E0D2669
S3151C0039907603AD196885888A4A4888824A4D166816
S3151C0039A03F48361835848D8AFF258D820125166879
S3151C0039B0AD0230188584888A8B8210683E49403156
S3151C0039C04018C48570BD3248002100680177817596
S3151C0039D01C20CFE770B5FFF7FAFBFFF72DFA032083
S3151C0039E00007818A3021C94381822C4A0021136831
S3151C0039F00D2464031B195984838A2D4B83821368F7
S3151C003A00324D5B195984224B1B68D975997599825D
S3151C003A10838A2023DB43838213681B191984838AB8
S3151C003A20244D85821468244BE418A181848A234E74
S3151C003A3086821468E418A181848A85821468E41835
S3151C003A40A184848A86821468E3189984818A082151
S3151C003A50C943818211680820114A4032891808809E
S3151C003A6070BD10B5002300283FD0194C0022A0427F
S3151C003A7000D92046521C400052B20028FADAD4174C
S3151C003A80E40EA41864096401121B1F24A21A21E067
S3151C003A909000002000010020FFFD00008400002093
S3151C003AA040A00100808B000001700000FFF70000A1
S3151C003AB0FFFB0000FFBF0000C0A40100FF7F000049
S3151C003AC0E0FF0000F30F00000CB0000080A1010015
S3151C003AD0FFFF7F00D2B20A70082A09D2000E000628
S3151C003AE0A21AD040C0B20B70C2E40B700020BFE417
S3151C003AF0000ED21F0A70BBE4F0B503242407A18A6A
S3151C003B00F749A182002801DD012100E00021F54AC8
S3151C003B108902F54E891832680D277F03D219118147
S3151C003B20012300215B02454207E0A28AEF4AA282DA
S3151C003B303268D2191381491C49B2002801DB02469E
S3151C003B4000E02A468A42F0DCF0BDF0B50E270022C2
S3151C003B50E54DE74EFF43E74C0F23002915D00028FF
S3151C003B6008D0104608E029688919898889068916AB
S3151C003B70791A19E01F461846FFF711FB2068C17D0C
S3151C003B800909C9438907EED1F0BD002801D01046AA
S3151C003B9001E01F461846FFF7EAFA28688019408894
S3151C003BA080068016391A206840308187F0BD400097
S3151C003BB00F3840B2704770B5CE4C00212068CA4AF7
S3151C003BC04030C1871068CA4BC01880888006801692
S3151C003BD0FFF7EDFF2168C031C8761068C018408811
S3151C003BE080068016FFF7E3FF21681B220B46C033B5
S3151C003BF018779A56002A01DB134600E05342002828
S3151C003C0001DB054600E04542AB4205DD0B46403371
S3151C003C10DD8F04263543DD87002A05DD0A46403242
S3151C003C20D38F02252B43D387002805DD0846403059
S3151C003C30C28F01231A43C287CA7D9006800F15D0F6
S3151C003C40012822D0022823D003280ED14031C88F48
S3151C003C5001218007C00FFFF778FF20684030C08F16
S3151C003C60C007C00F0021FFF770FF70BD7E20085EE5
S3151C003C70042801DB012100E00021042802DB800767
S3151C003C80C00FF0E7C007C00FEDE7D007C00FE9E78C
S3151C003C90D007C00F0121E6E7F8B5934D28680D2320
S3151C003CA05B03C018828A934C20680146A0314A7275
S3151C003CB02A68D218928A002712128A728782C17DBC
S3151C003CC08F4E0B078C498D4AB38AB18203D529685E
S3151C003CD089180F8003E02B6808219A181180C07D73
S3151C003CE04007400F030002F0CBFA08050E1C3044B7
S3151C003CF0445F67461F20FEF729FF2168AA20085645
S3151C003D00FFF798F919E01E20C043FEF71FFF216834
S3151C003D10AA200856FFF78EF922E0216840318887D1
S3151C003D2029E00020FEF712FF2068A030407B002807
S3151C003D3005D00120C043FEF76FFE1F20EDE72020B3
S3151C003D40FEF76AFE0020C043F5E70020FEF7FEFEE4
S3151C003D502068A030407B002805D00220FEF75CFEC0
S3151C003D601E20C043D9E71F20C043FEF755FE012085
S3151C003D70F4E7FFF720FF2068C07D40072BD4FFF730
S3151C003D80A8F82068AD21095C002922D0C07D8107D6
S3151C003D901FD55A49C207FF204039002AB28AB08271
S3151C003DA012D00120400211E02020FFF7A5FE0020C2
S3151C003DB0C043FFF7A1FEC0E71F20C043FFF79CFED0
S3151C003DC00120FFF799FECBE70120C0022A68511893
S3151C003DD08884FEF795FEFEF7FFFF2068B830FFF7D4
S3151C003DE009F8206887750777803007824782F8BDF7
S3151C003DF010B501F0C9FE3F49096840314887000CDF
S3151C003E0008874BE57CB5064608686946C008FFF777
S3151C003E1028FE384D9A2229683A4C525A0B7FD218E2
S3151C003E20A054087FBF2801D3BF2000E0401C0877A0
S3151C003E3001A93068FFF715FE694609780A0169462B
S3151C003E4009790A4329680B4680335D8B0E7FAD19B1
S3151C003E5062550A7FBF2A01D3BF2200E0521CD2B290
S3151C003E600A775B8B9A18A054087FBF2801D3BF2002
S3151C003E7000E0401C08777CBD70B51E4A0E241368F2
S3151C003E80002540339C87184B194C002940D000282C
S3151C003E90186811D00019808880068016FFF787FEE7
S3151C003EA01168DB268E57B0422EDA186800198088F6
S3151C003EB080068016401C10E000198088800680163B
S3151C003EC0FFF775FE1168DB268E57B0421CDD18689D
S3151C003ED00019808880068016401EFFF760F970BDA9
S3151C003EE0808B00000140000084000020FFFD0000C4
S3151C003EF080A2010090000020F7FF000080A00100B6
S3151C003F000000003000010020106840308587E6E77D
S3151C003F100028186811D00019408880068016FFF703
S3151C003F2046FE1168DC268E57B042EDDA1868001979
S3151C003F30408880068016401C10E0001940888006C8
S3151C003F408016FFF734FE1168DC268E57B042DBDD87
S3151C003F5018680019408880068016401EFFF707F96E
S3151C003F60BDE7F0B585B000206946FF4F087238687A
S3151C003F70818A09047ED403252D07A98AFB49A982B7
S3151C003F80FB4C202122680D26760392195184AD2103
S3151C003F90095C002911D07C22115E10311F2902D91F
S3151C003FA0C07D80070DD42068F24942182820105E77
S3151C003FB0226880025118498D0CE002A8FEF71AFFF0
S3151C003FC00AE02068EB4942182C20105E2268800209
S3151C003FD05118C98DC9B20843009001A8FFF744F9CE
S3151C003FE00390E14807683846903002F05EF81021CD
S3151C003FF0C84100994018884201D20020C043039949
S3151C0040000090012924D07C21C95B002920D0DA49E3
S3151C004010897C090181426ED22722019912029142A2
S3151C00402005D8D64A914266D9F97D490663D501A9B8
S3151C0040306846FFF7E7FECC4A1168CB7DD8071FD030
S3151C0040400F4640373C20385E002817DA401C1EE01D
S3151C00405001A96846FFF7D6FEC3486A460068127A6D
S3151C004060017F92031143039A01235203DB031A4374
S3151C004070114300E000E0818205B0F0BD002006E09F
S3151C0040800F4640373C20385E0028F7DD401EB887B7
S3151C004090980741D5AD20475C0120B94A4002002F44
S3151C0040A001D05F0705D5A98AAA82216889190881CA
S3151C0040B06AE0DB07FF27002B13D07C23CB5E103373
S3151C0040C013D13E20C043FEF7A7FC0120FEF7A4FC3B
S3151C0040D0A88AAF82012022688002A64951188884CA
S3151C0040E052E04031898F0F2906D0A98AAA822168FD
S3151C0040F089190881D7E765E03F20FEF78DFC002073
S3151C004100C043FEF789FCA88AAF8201212268890276
S3151C00411098481018818437E0934F58072FD5980676
S3151C004120800F06D0012815D0022816D003282BD1C3
S3151C00413017E07E20085E042801DB012100E0002137
S3151C004140032802DB8007C00F01E0C007C00FFFF782
S3151C00415093FE19E0D807C00F0FE0D807C00F012146
S3151C004160F5E74031C88F01218007C00FFFF784FE99
S3151C00417038684030C08FC007C00F0021E7E74031C8
S3151C004180888F40B2FEF7E2FCFFF732FE7648002726
S3151C0041900068803007824782FEF7B2FC02A8FEF751
S3151C0041A029FE0090A88A7148A88220688019478435
S3151C0041B06D487C210068095A027F4906490C0A434E
S3151C0041C0828259E7010C803739827882FEF798FC87
S3151C0041D0A88A6648A8822168002089194884E7E7CE
S3151C0041E0F0B503200007818AF021C9438182604A09
S3151C0041F0F02114680D235B03E418E180818A614970
S3151C004200818214680021E4182181848AA024E44355
S3151C00421084821468E4182184848A3224E4438482C8
S3151C0042201468E4186184848A504D6D1C8582166856
S3151C0042300D24F3185C85838A534B838214684D4B7B
S3151C004240E4182180848A514E86821468E4186180A1
S3151C004250848A86821468E418A180848AB41C8482A9
S3151C0042601668F618F180868A84821668F6183181DB
S3151C004270868A84821468E4186181848A444C848208
S3151C0042801468E418A181848AAE11868221241768D9
S3151C004290A402FF18FC81848A832484821468E4188F
S3151C0042A06182848A3B4C84821468E4182183848A44
S3151C0042B07F24240284821468E4186183848A86829B
S3151C0042C031241668A402F618B483848AFF240434A5
S3151C0042D084821468E4182184848A81821468E41810
S3151C0042E06184848A81821468E418A184848A818208
S3151C0042F01468E318D984838A274B83821368274C56
S3151C0043001B195984838A224BC13B83821468244B14
S3151C004310E4186180848A81821468E418E185848AA1
S3151C00432081821468E4182186848A81821468E418C0
S3151C0043306186848A81821468E418A186848A8182B3
S3151C0043401468E418E186848A81821468E41821873B
S3151C004350848A81821468E3185987838A0A4E203618
S3151C004360868214680E4B1DE090000020DFFF0000C3
S3151C0043708400002040A0010000040020CC0700009F
S3151C004380FFFD000080810000DF3F0000FD130000E0
S3151C004390C0C00000FD0F0000FFFB000080A1010053
S3151C0043A080A401004033E418A181848A86821468A3
S3151C0043B0E3189984838A85821068F94A8018C18516
S3151C0043C0F0BD70B5F74920220968525C012A01D05C
S3151C0043D0824219D10A460B46A032E033157B1C4695
S3151C0043E09D774B7CE377DE09C4B2F6014036CC7769
S3151C0043F04E74002C03D00121117314716FE5F00962
S3151C004400C001157303434B74002068E5032109079B
S3151C0044108A8A00228A82E449000209680D22520314
S3151C004420891880304883704703221207938A3F23DA
S3151C004430938209070001090F0843000280214030BE
S3151C0044400843D94909680D225203891848837047C5
S3151C004450F0B5D549D54809680D2252038918898BB0
S3151C00446000278C463C4615E0395D020A5140002364
S3151C0044701A46CF4E07E0CD0702D05500755B6B4040
S3151C004480521C92B249080029F5D100024340641C13
S3151C00449098B2A4B26445E7D3F0BDFEB5C24D014641
S3151C0044A02A680D2676039019408B0024070AC148FA
S3151C0044B00B00407DC0000090BA4802681046803050
S3151C0044C0029060300190403801F0DAFE190E19187E
S3151C0044D0183F67F8F7F6F5F4F3F2F118F0EFEEED86
S3151C0044E0ECEB18EA18E9180003200007818AC021A2
S3151C0044F0C94381822968802089194883FEBD002F03
S3151C00450005D0012F0ED0022F16D00121B8E2007B58
S3151C0045100028F3D00120507401980121007B01F082
S3151C00452008FCA8E201989F4C007B012101F001FCCC
S3151C0045302168012048749EE2C17801231943C17089
S3151C004540547401980021007BE9E7002F06D0012F47
S3151C0045500BD0022F13D0032FE3D117E00320000743
S3151C004560818A848201F017FB05E003200007818AFB
S3151C004570848201F00CFB2968891988837BE203205D
S3151C0045800007818A84820198007BF4E703200007D8
S3151C004590818A848201F038FBEDE7BF1E3B0001F0E7
S3151C0045A06FFE053043638E050400A7E7517C7D4BE7
S3151C0045B08F06BF0E022F01D30C208FE0477B012FE5
S3151C0045C06CD8077B002F01D1490697D0517C1F461A
S3151C0045D08174FEF7B2FA1968B522505428688019FE
S3151C0045E0808B40318887FEF7BBFC010001D006207A
S3151C0045F074E0386805214174032109078A8A8C8274
S3151C00460053E1017B674B002902D1517C4906CCD072
S3151C004610517C8174FEF791FA1968B5225054012019
S3151C0046204874FFF7D0F926E2C17801231943C170FB
S3151C004630507C5C4D8006800E02280ED35E485D4E73
S3151C00464004605E4870813081411C5D4801F029FD83
S3151C00465074750121462001F0CFFCFFF7BBF92868D1
S3151C004660B221095C417406E2517C4E4B8C06A40EA9
S3151C004670022C2AD2447B012C10D8047B002C01D19D
S3151C004680490692D04B4C01216175517C8174FEF711
S3151C00469054FA1968B522505402202FE07FE0A8E195
S3151C0046A059E151E104E130E11AE1C1E05CE052E07C
S3151C0046B046E03DE037E031E02DE027E024E0517C88
S3151C0046C0384B8C06A40E022C01D30098B8E0447B10
S3151C0046D0012C64D8047B002C05D102E0FFF7A4FE54
S3151C0046E0FEBD4906FCD0334C01216175517C817499
S3151C0046F0FEF723FA1968B522505403204874FFF7B5
S3151C004700CEF8FEF7FDF9B6E1D05D1FE028688019EA
S3151C004710808BD055AFE12748C05D17E0286880190B
S3151C004720808B24491EE0D01940780102D05D0CE034
S3151C00473028688019808BD055000AD11948709AE1D7
S3151C0047401C48C1194978C05D0902084303210907A1
S3151C0047508A8A8C820FE728688019808B1549020A81
S3151C004760CB195A70C85586E1507C8006800E0228EB
S3151C0047705BD2002F26D0012F39D0022FB0D10D4885
S3151C0047800D4944750C600D4941810181491C0C4839
S3151C00479001F087FC0121492001F02EFC43E05DE07D
S3151C0047A000A501009000002084000020FFFF0000EF
S3151C0047B07A4200000004002088000020FF0200004E
S3151C0047C000010020002300941A46112102200194A6
S3151C0047D001F09CFBF849012048754889F74A088175
S3151C0047E0904201D1002000E0401C088143E1F24ABE
S3151C0047F0F34811895389405C994203D1FF21013149
S3151C004800084306E0ED4B994201D1002100E0491C0A
S3151C0048101181032109078A8A8C822A68C1B29219DE
S3151C0048209183000A8BD001208BE00021052055E7DF
S3151C004830517C8C468906890E022904D30098614650
S3151C0048400843C1B2B8E6790705D52B68DD495B1864
S3151C0048505B8EDB0705D0417B012909D902210D207E
S3151C0048603CE728684018408EC107C90F082035E769
S3151C004870017B002903D16146490600D130E7CE4BA6
S3151C00488001215975517C8174FEF757F9CE49B52221
S3151C0048900968505404204874CF75FFF7FDF90320AE
S3151C0048A00007818A8482C84800684030808F62E68F
S3151C0048B0C17801221143C170C448BF4D0460BF4872
S3151C0048C068812881411CC04EBD4801F0EAFB6C750D
S3151C0048D001214A2001F090FBFFF77CF83068BFE607
S3151C0048E00298917D408B4118B548405C032109070D
S3151C0048F08B8A8C82296889198883907DBF2801D36D
S3151C004900002000E0401C9075B5E00298AC4B418B32
S3151C004910907D0F18DF5DBF2801D3002000E0401CEE
S3151C004920C0B290750918595CBF2801D3002000E05D
S3151C004930401C907503200007828A84823802084333
S3151C00494019E6FFF763FDFEBD03200007818A8482FA
S3151C004950FFF77EFD0FE601999B4DCF767906490F31
S3151C00496001291ED0022903D0052922D00629EAD105
S3151C004970517C8B069B0E022B00D3A6E6037B002BD9
S3151C00498001D14906DFD08C4901234B75517C8174BA
S3151C004990FEF7D3F82968B52250544B74FEF7D5FCA4
S3151C0049A069E0507C410668D006205074FEF761FD14
S3151C0049B061E0507C8006800E02280DD383487E4E13
S3151C0049C004607E4870813081411C7D4801F069FB82
S3151C0049D00121747547202CE028688482FEF7F0FEBE
S3151C0049E028680146A0318A7C4274E030C4768C74F7
S3151C0049F041E029688919498B019B090AD976724DB0
S3151C004A004906490F18D001292ED002299BD1507C6A
S3151C004A108006800E0228DFD36C48674E0460674808
S3151C004A2070813081411C664801F03BFB7475012185
S3151C004A30482001F0E1FACFE7517C8B069B0E022B36
S3151C004A409BD2037B002B01D149069BD05A490123DB
S3151C004A504B75517C8174FEF770F82968B522505449
S3151C004A604B74FEF7DDFE06E0507C410605D00720A0
S3151C004A705074FEF7DEFE002063E700990143C9B2BD
S3151C004A8001202BE630B5504900200B681D468035A9
S3151C004A90E8801A462881A0329070D1781C464908B5
S3151C004AA04900D1700221117150719071E03460720D
S3151C004AB041491072897F517219469072C0314874EF
S3151C004AC08877C877E881A881907310749077D0771F
S3151C004AD0E070507628800870487088706880A880BE
S3151C004AE0C87088734873C8730874C8740875487589
S3151C004AF088752074A074012262742883E074207562
S3151C004B006075588258739873D8731874C87508766C
S3151C004B1048768876887420706881A0729882987509
S3151C004B20D8751883588330BD10B5FFF759FBFFF7AE
S3151C004B30A9FF254800688079C0070BD10320000710
S3151C004B40818A0F21C9438182214900200968214A93
S3151C004B508918488000F081FB10BD70B501F01BF868
S3151C004B60154AD188002914D0CB08C01A0818D08041
S3151C004B70107B012114280ED2174B184D43435B1989
S3151C004B80DB11D4885B1C5B109C4204DCD174401C7A
S3151C004B900FE0C000EBE7002824D00F4B104D434319
S3151C004BA05B19DB11D4885B1C5B109C421ADBD1742D
S3151C004BB0401E107322E4000000040020FF020000C7
S3151C004BC00001002080A10100900000208800002028
S3151C004BD08400002080A001008AF2FEFF35A8320066
S3151C004BE0C57F34000020D07408E4FEB54021D348AC
S3151C004BF001F057FAD14C262020800D200003A080FE
S3151C004C000426A6730B2000252073E574257565758F
S3151C004C1000F0C1FFC000E0800027FFF79EFF7F1C4D
S3151C004C20FFB2082FF9D3C6490868C64A8018C08F38
S3151C004C3028230007000FE073257401206073A375F9
S3151C004C40E675102323766576A0760220E07603208F
S3151C004C502077242060772020A0770520E577C001E7
S3151C004C6020840B208001608403200007838A8582B0
S3151C004C7001230F689B02B44EBF193B80878A85822D
S3151C004C800F68BE19B380838A8582B04B0E68B6182E
S3151C004C903384838A8582AE4B0E68B6187384838AE6
S3151C004CA0858281230E68DB01B618B384838A8582CC
S3151C004CB0A84B0E68B618F384838A8582A64B0E68A9
S3151C004CC0B6183385838A8582A44B0E68B6187386FC
S3151C004CD0838A0F23DB4383820868801885855F21BE
S3151C004CE0C9009F4801F0DDF99E4805609E48608119
S3151C004CF02081411C9A4801F0D4F900230095012219
S3151C004D0019211846019501F001F9FEBD10B5974809
S3151C004D10002100680A2302460180A0325370817765
S3151C004D20C17281720173417381730174C1734182B3
S3151C004D304174117301718171C171017241724177A4
S3151C004D400222427101228270E030817041768176A6
S3151C004D5003200007828A7E4A521F8282784A146880
S3151C004D60784B403BE4182185848A0F24E4438482D3
S3151C004D701468E3185985838A7823DB438382106879
S3151C004D80704A80180180FFF77DFE01211A2001F070
S3151C004D9033F910BD70B56A4D2868754E8019C18EE1
S3151C004DA028688019008F8A044B05520F5B0FD21896
S3151C004DB089065208890E51188204530FC206D20E58
S3151C004DC09B188409E40700D05B424405640FA218B3
S3151C004DD04009C00700D05242981843102868801911
S3151C004DE0408F8006841628688019408F4005C2169D
S3151C004DF0286885193A20285EC012002900DA494223
S3151C004E00002B00DA5B42C918002C00DA644209192F
S3151C004E10002A00DA52428918002800DA4042081893
S3151C004E2080B2C7E6F0B5464D2868514A8018C18E37
S3151C004E3028688018008F2B689B185B8F5B05DB121C
S3151C004E401C0C2B689B183A229A5E8B044E055B0F32
S3151C004E50760F9B1989065B08890E5E188104C306AA
S3151C004E605201490FDB0E120CC9188709FF0700D027
S3151C004E70494247057F0FFB184009C00700D05B421B
S3151C004E80C818296843103A480818408F80068116AE
S3151C004E9048005D18844640196500344C4019246846
S3151C004EA08018248800B2A706BF0F022F09D16407F9
S3151C004EB007D55800801941186046081840198018F3
S3151C004EC000B2F0BD00B5FFF765FF81004000081871
S3151C004ED080B200BD00B50022FDF72FFE002801DAC6
S3151C004EE04042012216490968214B4033C9180988DA
S3151C004EF0C908C907C90F02D040001E4902E01D4956
S3151C004F0040004039085E002A01D0404200B200BD74
S3151C004F1010B5032109078A8A8A138A82084A8006E1
S3151C004F201468C30D12482418E3828B8A124B8B8299
S3151C004F301268591C1018C18210BD00000004002004
S3151C004F408400002040A1010040A20100952200001F
S3151C004F50041000000C06000001850000054000003E
S3151C004F600001002088000020FF02000090000020A5
S3151C004F7040A00100CA420000FF7F000030B503229A
S3151C004F801207938AFE4B93824402FE480568FE4B29
S3151C004F90ED18EC82948A7F24640294820468E418D7
S3151C004FA0E182918AF949918205684C1CED18EC82C4
S3151C004FB0948A918200680021C018C18230BDF0B568
S3151C004FC003242407A08AF248A082EE4D01202A68F9
S3151C004FD04003F0495218D081A08AEF48A0820120D4
S3151C004FE02A6880035218D081A08AEB488030A082A0
S3151C004FF009202A6840025218D082A08AE74EA6824F
S3151C0050002B681422E34840301B181A84A38AA682F4
S3151C0050102B681B185A84A28AE14AA28201232E6895
S3151C0050205B0236183384A68AA2822E683018438403
S3151C005030A08AA28228680026401886821127F8B208
S3151C0050400021FFF79BFF7F1C182FF8DBA08AA68286
S3151C0050502868D44940180680A08AA682D2492A68A4
S3151C005060D048403812181184A18AA682CF492A68D2
S3151C00507012189184A18AA682CD492A681218D18455
S3151C005080A18AA6827D212A68490110184185A08A19
S3151C005090A682C8492A68C84812185182A18AA682C3
S3151C0050A0C6492A6810184183A08AB848A0822A6873
S3151C0050B0411CB848403010184184F0BDF8B5032493
S3151C0050C02407A08AB148A082AE4D401C2968B14E67
S3151C0050D08919C881A08AB14F203FA782296814204C
S3151C0050E0A94A8918C8811F20FFF712FFA08A0F2022
S3151C0050F0C043A08229680420A34A403289184880EC
S3151C005100A08A7F20C043A08229682420891908838D
S3151C005110A08AAB48A08201222B6892039D4940318C
S3151C0051205B181A84A38AA0822B685B185A84A28AED
S3151C005130A0822A68002051188884A18AA78229681F
S3151C00514089198883F8BD10B503200007818A924906
S3151C00515081828C4A002314688E4964186384838A6E
S3151C0051608A4B83821268581C5118488410BD10B58E
S3151C00517003200007818A93498182824905230C6892
S3151C0051805B02814AA4186382838A8F4B838207231E
S3151C0051900C685B03A4186382838A2023DB43838207
S3151C0051A00C682023A4186382838A1023DB43838222
S3151C0051B00C680023A4186382848A4024E4438482F6
S3151C0051C00C68A4186382848A0C24E44384820868CD
S3151C0051D08018438210BD70B5032109078A8A784A54
S3151C0051E08A828202674803686A4C40341B199A8477
S3151C0051F08A8A664B8B8205685C1C634AAD182C83B5
S3151C0052008C8A8B8204680023A41863838C8A6F4C57
S3151C0052108C820468A41823838C8A6D4C8C82046847
S3151C005220A41823838B8A0223DB438B820468022304
S3151C005230A41823838C8A0F24E4438C820468A41844
S3151C00524063838B8AF023DB438B82006820218018C2
S3151C00525041830020FDF7EEFE70BDF0B5032000076C
S3151C005260818A4D498182474901230C689B03494A1F
S3151C005270A2189384828A454B83820C685D1C454A1E
S3151C005280A2189584828A7F22520282820E6800248A
S3151C0052903D4AB618F482868A394E86820F68AE114C
S3151C0052A0BF18FE82868A83820E68B618F582868AA5
S3151C0052B083820E68B618F482868A314E86820F68FF
S3151C0052C06E11BF18FE82868A83820E68B618F58216
S3151C0052D0868A83820E68B618F482868A284E86824F
S3151C0052E00F68C614BF18FE82868A83820E68B6189B
S3151C0052F0F582868A83820E68B618F482868A204EC8
S3151C00530086820F682E11BF18FE82868A83820E68DB
S3151C005310B618F582868A83820E68B618F482868A47
S3151C005320174E868205260F687602BF18FE82868A6D
S3151C00533083820E68B618F582868A83820E68B61832
S3151C005340F482868A0E4E86820F688614BF18FE82E9
S3151C005350868A83820E68B618F582868A83820E68D0
S3151C005360B618F482868A064E868207260F6876024F
S3151C005370BF18FE82868A83820E68B618F58229E0DB
S3151C005380FFC100008400002040A00100FF7F000038
S3151C005390FFDF0000C0A40100FFBF0000E0FF00000B
S3151C0053A01FFC000040A10100404C0000823E000092
S3151C0053B0872400004821000040A301000D040000C2
S3151C0053C0FF830000FFF00000FF0F0000FF9F00009E
S3151C0053D0FFEF0000868A83820E68B618F482868ADE
S3151C0053E0FE4E86820F68EE10BF18FE82868A838266
S3151C0053F00E68B618F582868A83820E68B618F48201
S3151C005400868AF64E868209260F687602BF18FE82A9
S3151C005410868A83820E68B618F582858A83820D6811
S3151C005420AA18D482828AEE4A82820D68ED4AAA188C
S3151C0054309484828A83820968EA4808188484F0BDA9
S3151C005440F8B51F20FFF764FD03242407A08A0F204C
S3151C005450C043A082E44E07203168E44D49194880B8
S3151C005460A08A7F20C043A08232682221DD48101802
S3151C00547001830020FDF7DEFDA08A0820C043A08220
S3151C00548031680820491908800020FDF75FFB1125AB
S3151C005490E8B20021FFF772FD6D1C172DF8DBA08A00
S3151C0054A0F020C043A082D048C02100680D256D03A2
S3151C0054B04019C180A08ACE4EA682CB4901200A681B
S3151C0054C08003C84F4037D1190884A18AA682C649D1
S3151C0054D00A68D1194884FFF74AFEC6481921006894
S3151C0054E0A0308176A08AC449A182BF4A481C136891
S3151C0054F0BE4A403A9B181883A08AA182BA4B002048
S3151C0055001B689B185883A38AA182B74B1B689B18E0
S3151C0055105880A38AA182B44B1B689B189880A38AC7
S3151C005520A182B14B1B689B18D880A38AA182AE4B63
S3151C0055301B689B181881A38AA182AB490968891824
S3151C0055404881A18AA682A8490A68D1198884A18A99
S3151C0055502021C943A182A44A202112685219118410
S3151C005560A18AC11EA182A049096849194884A08A3A
S3151C0055700120C043A0829C4801260068401946842D
S3151C00558000F033FB98480068964F403FC019808F47
S3151C005590800601D50D2000E0984800F002FB924DD4
S3151C0055A02868C019808FC00701D000F00FFB9148F6
S3151C0055B0052201680846E030427686762A688B48C2
S3151C0055C080301018C08A0007000FA0314873A08ACB
S3151C0055D08948A0822A680021824812185184A18A0F
S3151C0055E07F49A18201212A68890310184184F8BDCC
S3151C0055F0F0B503200007818A7F4C84827A490023F8
S3151C0056000D687A4A403AAD182B83858A84820D68C8
S3151C005610AD186B83858A84820E68651CB6187580E6
S3151C005620868A84820E68B618B580868A84820E683D
S3151C005630B618F580868A84820E68B6183581868AE5
S3151C00564084820E68B6187581868A84820C68A418B2
S3151C0056502580848A624C84826C100D68AD182C805F
S3151C005660848A674E86820D680224AD186C80858AF2
S3151C00567086820D68AD18AC80848A3F24E4438482FC
S3151C0056800C682027A418A781848A5E4C84820D6826
S3151C0056903C02AD18AC81848A5B4C84820D68AD18C3
S3151C0056A06B80858A594D85820E68B6187380868AEA
S3151C0056B084820E68B618B380868A85820E68B618F0
S3151C0056C0B380868A84820E68B618F380868A8582A1
S3151C0056D00E68B618F380868A84820E68B6183381E3
S3151C0056E0868A85820E68B6183381868A84820C68FF
S3151C0056F0A4186381848A85820C68A4186381838AB2
S3151C005700FB438382086880180780F0BD70B50324AC
S3151C0057102407A08A3848A082334D00262A683349BC
S3151C005720403952181683A28AA082286840184683DC
S3151C005730FFF75EFFA08A2E48A082012029688003FD
S3151C005740284A403289188884A08A4020C043A082F7
S3151C0057502A6840210D20400312181184A18A202199
S3151C005760C943A18229680818068470BD70B5032434
S3151C0057702407A18A1E49A1821B4D80022968194A49
S3151C005780403289188884A08A1B4AA2822B68002171
S3151C005790164840381B181983A38AA2822B68521CF0
S3151C0057A01B185A83A28A184AA2822A6812181183C5
S3151C0057B0A28A174AA2822A6812181183A18A022178
S3151C0057C0C943A1822A68022112181183A28A0F22B8
S3151C0057D0D243A2822A68121851831BE0FFC1000023
S3151C0057E0FFBF0000C0A401008400002080A00100AF
S3151C0057F0FF83000090000020FF7F0000A0860100B0
S3151C005800FDFF0000FFC00000FF9F0000FFF300002B
S3151C005810FFEF0000A18AF021C943A1822A6820213A
S3151C00582012185183A18AC649A1821F222B68920293
S3151C0058301B189A83A28AA18219212A688902101828
S3151C005840C1810020FDF7F6FBA08A0820C043A08278
S3151C00585029680820BB4A8918088070BDF8B5FFF76F
S3151C00586039FBB94C216840318887FFF72BFB21682F
